{
	"ProdArch.sol": {
		"AccessAndVerification": {
			"abi": [
				{
					"inputs": [
						{
							"internalType": "address",
							"name": "_registryAddress",
							"type": "address"
						}
					],
					"stateMutability": "nonpayable",
					"type": "constructor"
				},
				{
					"inputs": [],
					"name": "registry",
					"outputs": [
						{
							"internalType": "contract ProductRegistry",
							"name": "",
							"type": "address"
						}
					],
					"stateMutability": "view",
					"type": "function"
				},
				{
					"inputs": [
						{
							"internalType": "uint256",
							"name": "_productId",
							"type": "uint256"
						},
						{
							"internalType": "string",
							"name": "_manualHashToCheck",
							"type": "string"
						}
					],
					"name": "verifyManual",
					"outputs": [
						{
							"internalType": "bool",
							"name": "",
							"type": "bool"
						}
					],
					"stateMutability": "view",
					"type": "function"
				},
				{
					"inputs": [
						{
							"internalType": "uint256",
							"name": "_productId",
							"type": "uint256"
						},
						{
							"internalType": "string",
							"name": "_specificationsHashToCheck",
							"type": "string"
						}
					],
					"name": "verifySpecifications",
					"outputs": [
						{
							"internalType": "bool",
							"name": "",
							"type": "bool"
						}
					],
					"stateMutability": "view",
					"type": "function"
				},
				{
					"inputs": [
						{
							"internalType": "uint256",
							"name": "_productId",
							"type": "uint256"
						}
					],
					"name": "viewProductDetails",
					"outputs": [
						{
							"internalType": "string",
							"name": "",
							"type": "string"
						},
						{
							"internalType": "string",
							"name": "",
							"type": "string"
						},
						{
							"internalType": "string",
							"name": "",
							"type": "string"
						},
						{
							"internalType": "string",
							"name": "",
							"type": "string"
						},
						{
							"internalType": "string",
							"name": "",
							"type": "string"
						},
						{
							"internalType": "string",
							"name": "",
							"type": "string"
						},
						{
							"internalType": "string",
							"name": "",
							"type": "string"
						}
					],
					"stateMutability": "view",
					"type": "function"
				}
			],
			"devdoc": {
				"kind": "dev",
				"methods": {},
				"version": 1
			},
			"evm": {
				"assembly": "    /* \"ProdArch.sol\":4206:5579  contract AccessAndVerification {... */\n  mstore(0x40, 0x80)\n    /* \"ProdArch.sol\":4282:4381  constructor(address _registryAddress) {... */\n  callvalue\n  dup1\n  iszero\n  tag_1\n  jumpi\n  revert(0x00, 0x00)\ntag_1:\n  pop\n  mload(0x40)\n  sub(codesize, bytecodeSize)\n  dup1\n  bytecodeSize\n  dup4\n  codecopy\n  dup2\n  dup2\n  add\n  0x40\n  mstore\n  dup2\n  add\n  swap1\n  tag_2\n  swap2\n  swap1\n  tag_3\n  jump\t// in\ntag_2:\n    /* \"ProdArch.sol\":4357:4373  _registryAddress */\n  dup1\n    /* \"ProdArch.sol\":4330:4338  registry */\n  0x00\n  0x00\n    /* \"ProdArch.sol\":4330:4374  registry = ProductRegistry(_registryAddress) */\n  0x0100\n  exp\n  dup2\n  sload\n  dup2\n  0xffffffffffffffffffffffffffffffffffffffff\n  mul\n  not\n  and\n  swap1\n  dup4\n  0xffffffffffffffffffffffffffffffffffffffff\n  and\n  mul\n  or\n  swap1\n  sstore\n  pop\n    /* \"ProdArch.sol\":4282:4381  constructor(address _registryAddress) {... */\n  pop\n    /* \"ProdArch.sol\":4206:5579  contract AccessAndVerification {... */\n  jump(tag_6)\n    /* \"#utility.yul\":88:205   */\ntag_8:\n    /* \"#utility.yul\":197:198   */\n  0x00\n    /* \"#utility.yul\":194:195   */\n  0x00\n    /* \"#utility.yul\":187:199   */\n  revert\n    /* \"#utility.yul\":334:460   */\ntag_10:\n    /* \"#utility.yul\":371:378   */\n  0x00\n    /* \"#utility.yul\":411:453   */\n  0xffffffffffffffffffffffffffffffffffffffff\n    /* \"#utility.yul\":404:409   */\n  dup3\n    /* \"#utility.yul\":400:454   */\n  and\n    /* \"#utility.yul\":389:454   */\n  swap1\n  pop\n    /* \"#utility.yul\":334:460   */\n  swap2\n  swap1\n  pop\n  jump\t// out\n    /* \"#utility.yul\":466:562   */\ntag_11:\n    /* \"#utility.yul\":503:510   */\n  0x00\n    /* \"#utility.yul\":532:556   */\n  tag_20\n    /* \"#utility.yul\":550:555   */\n  dup3\n    /* \"#utility.yul\":532:556   */\n  tag_10\n  jump\t// in\ntag_20:\n    /* \"#utility.yul\":521:556   */\n  swap1\n  pop\n    /* \"#utility.yul\":466:562   */\n  swap2\n  swap1\n  pop\n  jump\t// out\n    /* \"#utility.yul\":568:690   */\ntag_12:\n    /* \"#utility.yul\":641:665   */\n  tag_22\n    /* \"#utility.yul\":659:664   */\n  dup2\n    /* \"#utility.yul\":641:665   */\n  tag_11\n  jump\t// in\ntag_22:\n    /* \"#utility.yul\":634:639   */\n  dup2\n    /* \"#utility.yul\":631:666   */\n  eq\n    /* \"#utility.yul\":621:684   */\n  tag_23\n  jumpi\n    /* \"#utility.yul\":680:681   */\n  0x00\n    /* \"#utility.yul\":677:678   */\n  0x00\n    /* \"#utility.yul\":670:682   */\n  revert\n    /* \"#utility.yul\":621:684   */\ntag_23:\n    /* \"#utility.yul\":568:690   */\n  pop\n  jump\t// out\n    /* \"#utility.yul\":696:839   */\ntag_13:\n    /* \"#utility.yul\":753:758   */\n  0x00\n    /* \"#utility.yul\":784:790   */\n  dup2\n    /* \"#utility.yul\":778:791   */\n  mload\n    /* \"#utility.yul\":769:791   */\n  swap1\n  pop\n    /* \"#utility.yul\":800:833   */\n  tag_25\n    /* \"#utility.yul\":827:832   */\n  dup2\n    /* \"#utility.yul\":800:833   */\n  tag_12\n  jump\t// in\ntag_25:\n    /* \"#utility.yul\":696:839   */\n  swap3\n  swap2\n  pop\n  pop\n  jump\t// out\n    /* \"#utility.yul\":845:1196   */\ntag_3:\n    /* \"#utility.yul\":915:921   */\n  0x00\n    /* \"#utility.yul\":964:966   */\n  0x20\n    /* \"#utility.yul\":952:961   */\n  dup3\n    /* \"#utility.yul\":943:950   */\n  dup5\n    /* \"#utility.yul\":939:962   */\n  sub\n    /* \"#utility.yul\":935:967   */\n  slt\n    /* \"#utility.yul\":932:1051   */\n  iszero\n  tag_27\n  jumpi\n    /* \"#utility.yul\":970:1049   */\n  tag_28\n  tag_8\n  jump\t// in\ntag_28:\n    /* \"#utility.yul\":932:1051   */\ntag_27:\n    /* \"#utility.yul\":1090:1091   */\n  0x00\n    /* \"#utility.yul\":1115:1179   */\n  tag_29\n    /* \"#utility.yul\":1171:1178   */\n  dup5\n    /* \"#utility.yul\":1162:1168   */\n  dup3\n    /* \"#utility.yul\":1151:1160   */\n  dup6\n    /* \"#utility.yul\":1147:1169   */\n  add\n    /* \"#utility.yul\":1115:1179   */\n  tag_13\n  jump\t// in\ntag_29:\n    /* \"#utility.yul\":1105:1179   */\n  swap2\n  pop\n    /* \"#utility.yul\":1061:1189   */\n  pop\n    /* \"#utility.yul\":845:1196   */\n  swap3\n  swap2\n  pop\n  pop\n  jump\t// out\n    /* \"ProdArch.sol\":4206:5579  contract AccessAndVerification {... */\ntag_6:\n  dataSize(sub_0)\n  dup1\n  dataOffset(sub_0)\n  0x00\n  codecopy\n  0x00\n  return\nstop\n\nsub_0: assembly {\n        /* \"ProdArch.sol\":4206:5579  contract AccessAndVerification {... */\n      mstore(0x40, 0x80)\n      callvalue\n      dup1\n      iszero\n      tag_1\n      jumpi\n      revert(0x00, 0x00)\n    tag_1:\n      pop\n      jumpi(tag_2, lt(calldatasize, 0x04))\n      shr(0xe0, calldataload(0x00))\n      dup1\n      0x1c1caee6\n      eq\n      tag_3\n      jumpi\n      dup1\n      0x5065661e\n      eq\n      tag_4\n      jumpi\n      dup1\n      0x7b103999\n      eq\n      tag_5\n      jumpi\n      dup1\n      0xda8666e8\n      eq\n      tag_6\n      jumpi\n    tag_2:\n      revert(0x00, 0x00)\n        /* \"ProdArch.sol\":4387:4675  function viewProductDetails(uint _productId) public view returns (... */\n    tag_3:\n      tag_7\n      0x04\n      dup1\n      calldatasize\n      sub\n      dup2\n      add\n      swap1\n      tag_8\n      swap2\n      swap1\n      tag_9\n      jump\t// in\n    tag_8:\n      tag_10\n      jump\t// in\n    tag_7:\n      mload(0x40)\n      tag_11\n      swap8\n      swap7\n      swap6\n      swap5\n      swap4\n      swap3\n      swap2\n      swap1\n      tag_12\n      jump\t// in\n    tag_11:\n      mload(0x40)\n      dup1\n      swap2\n      sub\n      swap1\n      return\n        /* \"ProdArch.sol\":5112:5577  function verifySpecifications(... */\n    tag_4:\n      tag_13\n      0x04\n      dup1\n      calldatasize\n      sub\n      dup2\n      add\n      swap1\n      tag_14\n      swap2\n      swap1\n      tag_15\n      jump\t// in\n    tag_14:\n      tag_16\n      jump\t// in\n    tag_13:\n      mload(0x40)\n      tag_17\n      swap2\n      swap1\n      tag_18\n      jump\t// in\n    tag_17:\n      mload(0x40)\n      dup1\n      swap2\n      sub\n      swap1\n      return\n        /* \"ProdArch.sol\":4244:4275  ProductRegistry public registry */\n    tag_5:\n      tag_19\n      tag_20\n      jump\t// in\n    tag_19:\n      mload(0x40)\n      tag_21\n      swap2\n      swap1\n      tag_22\n      jump\t// in\n    tag_21:\n      mload(0x40)\n      dup1\n      swap2\n      sub\n      swap1\n      return\n        /* \"ProdArch.sol\":4681:5106  function verifyManual(... */\n    tag_6:\n      tag_23\n      0x04\n      dup1\n      calldatasize\n      sub\n      dup2\n      add\n      swap1\n      tag_24\n      swap2\n      swap1\n      tag_15\n      jump\t// in\n    tag_24:\n      tag_25\n      jump\t// in\n    tag_23:\n      mload(0x40)\n      tag_26\n      swap2\n      swap1\n      tag_18\n      jump\t// in\n    tag_26:\n      mload(0x40)\n      dup1\n      swap2\n      sub\n      swap1\n      return\n        /* \"ProdArch.sol\":4387:4675  function viewProductDetails(uint _productId) public view returns (... */\n    tag_10:\n        /* \"ProdArch.sol\":4462:4475  string memory */\n      0x60\n        /* \"ProdArch.sol\":4485:4498  string memory */\n      dup1\n        /* \"ProdArch.sol\":4508:4521  string memory */\n      0x60\n        /* \"ProdArch.sol\":4531:4544  string memory */\n      dup1\n        /* \"ProdArch.sol\":4554:4567  string memory */\n      0x60\n        /* \"ProdArch.sol\":4577:4590  string memory */\n      dup1\n        /* \"ProdArch.sol\":4600:4613  string memory */\n      0x60\n        /* \"ProdArch.sol\":4637:4645  registry */\n      0x00\n      0x00\n      swap1\n      sload\n      swap1\n      0x0100\n      exp\n      swap1\n      div\n      0xffffffffffffffffffffffffffffffffffffffff\n      and\n        /* \"ProdArch.sol\":4637:4656  registry.getProduct */\n      0xffffffffffffffffffffffffffffffffffffffff\n      and\n      0xb9db15b4\n        /* \"ProdArch.sol\":4657:4667  _productId */\n      dup10\n        /* \"ProdArch.sol\":4637:4668  registry.getProduct(_productId) */\n      mload(0x40)\n      dup3\n      0xffffffff\n      and\n      0xe0\n      shl\n      dup2\n      mstore\n      0x04\n      add\n      tag_28\n      swap2\n      swap1\n      tag_29\n      jump\t// in\n    tag_28:\n      0x00\n      mload(0x40)\n      dup1\n      dup4\n      sub\n      dup2\n      dup7\n      gas\n      staticcall\n      iszero\n      dup1\n      iszero\n      tag_31\n      jumpi\n      returndatacopy(0x00, 0x00, returndatasize)\n      revert(0x00, returndatasize)\n    tag_31:\n      pop\n      pop\n      pop\n      pop\n      mload(0x40)\n      returndatasize\n      0x00\n      dup3\n      returndatacopy\n      returndatasize\n      not(0x1f)\n      0x1f\n      dup3\n      add\n      and\n      dup3\n      add\n      dup1\n      0x40\n      mstore\n      pop\n      dup2\n      add\n      swap1\n      tag_32\n      swap2\n      swap1\n      tag_33\n      jump\t// in\n    tag_32:\n        /* \"ProdArch.sol\":4630:4668  return registry.getProduct(_productId) */\n      swap7\n      pop\n      swap7\n      pop\n      swap7\n      pop\n      swap7\n      pop\n      swap7\n      pop\n      swap7\n      pop\n      swap7\n      pop\n        /* \"ProdArch.sol\":4387:4675  function viewProductDetails(uint _productId) public view returns (... */\n      swap2\n      swap4\n      swap6\n      swap8\n      swap1\n      swap3\n      swap5\n      swap7\n      pop\n      jump\t// out\n        /* \"ProdArch.sol\":5112:5577  function verifySpecifications(... */\n    tag_16:\n        /* \"ProdArch.sol\":5244:5248  bool */\n      0x00\n        /* \"ProdArch.sol\":5358:5396  string memory storedSpecificationsHash */\n      0x00\n        /* \"ProdArch.sol\":5409:5417  registry */\n      0x00\n      0x00\n      swap1\n      sload\n      swap1\n      0x0100\n      exp\n      swap1\n      div\n      0xffffffffffffffffffffffffffffffffffffffff\n      and\n        /* \"ProdArch.sol\":5409:5428  registry.getProduct */\n      0xffffffffffffffffffffffffffffffffffffffff\n      and\n      0xb9db15b4\n        /* \"ProdArch.sol\":5429:5439  _productId */\n      dup6\n        /* \"ProdArch.sol\":5409:5440  registry.getProduct(_productId) */\n      mload(0x40)\n      dup3\n      0xffffffff\n      and\n      0xe0\n      shl\n      dup2\n      mstore\n      0x04\n      add\n      tag_35\n      swap2\n      swap1\n      tag_29\n      jump\t// in\n    tag_35:\n      0x00\n      mload(0x40)\n      dup1\n      dup4\n      sub\n      dup2\n      dup7\n      gas\n      staticcall\n      iszero\n      dup1\n      iszero\n      tag_37\n      jumpi\n      returndatacopy(0x00, 0x00, returndatasize)\n      revert(0x00, returndatasize)\n    tag_37:\n      pop\n      pop\n      pop\n      pop\n      mload(0x40)\n      returndatasize\n      0x00\n      dup3\n      returndatacopy\n      returndatasize\n      not(0x1f)\n      0x1f\n      dup3\n      add\n      and\n      dup3\n      add\n      dup1\n      0x40\n      mstore\n      pop\n      dup2\n      add\n      swap1\n      tag_38\n      swap2\n      swap1\n      tag_33\n      jump\t// in\n    tag_38:\n        /* \"ProdArch.sol\":5260:5440  (... */\n      swap7\n      pop\n      pop\n      pop\n      pop\n      pop\n      pop\n      pop\n        /* \"ProdArch.sol\":5542:5568  _specificationsHashToCheck */\n      dup3\n        /* \"ProdArch.sol\":5525:5569  abi.encodePacked(_specificationsHashToCheck) */\n      add(0x20, mload(0x40))\n      tag_39\n      swap2\n      swap1\n      tag_40\n      jump\t// in\n    tag_39:\n      mload(0x40)\n      0x20\n      dup2\n      dup4\n      sub\n      sub\n      dup2\n      mstore\n      swap1\n      0x40\n      mstore\n        /* \"ProdArch.sol\":5515:5570  keccak256(abi.encodePacked(_specificationsHashToCheck)) */\n      dup1\n      mload\n      swap1\n      0x20\n      add\n      keccak256\n        /* \"ProdArch.sol\":5485:5509  storedSpecificationsHash */\n      dup2\n        /* \"ProdArch.sol\":5468:5510  abi.encodePacked(storedSpecificationsHash) */\n      add(0x20, mload(0x40))\n      tag_41\n      swap2\n      swap1\n      tag_40\n      jump\t// in\n    tag_41:\n      mload(0x40)\n      0x20\n      dup2\n      dup4\n      sub\n      sub\n      dup2\n      mstore\n      swap1\n      0x40\n      mstore\n        /* \"ProdArch.sol\":5458:5511  keccak256(abi.encodePacked(storedSpecificationsHash)) */\n      dup1\n      mload\n      swap1\n      0x20\n      add\n      keccak256\n        /* \"ProdArch.sol\":5458:5570  keccak256(abi.encodePacked(storedSpecificationsHash)) == keccak256(abi.encodePacked(_specificationsHashToCheck)) */\n      eq\n        /* \"ProdArch.sol\":5451:5570  return keccak256(abi.encodePacked(storedSpecificationsHash)) == keccak256(abi.encodePacked(_specificationsHashToCheck)) */\n      swap2\n      pop\n      pop\n        /* \"ProdArch.sol\":5112:5577  function verifySpecifications(... */\n      swap3\n      swap2\n      pop\n      pop\n      jump\t// out\n        /* \"ProdArch.sol\":4244:4275  ProductRegistry public registry */\n    tag_20:\n      0x00\n      0x00\n      swap1\n      sload\n      swap1\n      0x0100\n      exp\n      swap1\n      div\n      0xffffffffffffffffffffffffffffffffffffffff\n      and\n      dup2\n      jump\t// out\n        /* \"ProdArch.sol\":4681:5106  function verifyManual(... */\n    tag_25:\n        /* \"ProdArch.sol\":4797:4801  bool */\n      0x00\n        /* \"ProdArch.sol\":4883:4913  string memory storedManualHash */\n      0x00\n        /* \"ProdArch.sol\":4954:4962  registry */\n      0x00\n      0x00\n      swap1\n      sload\n      swap1\n      0x0100\n      exp\n      swap1\n      div\n      0xffffffffffffffffffffffffffffffffffffffff\n      and\n        /* \"ProdArch.sol\":4954:4973  registry.getProduct */\n      0xffffffffffffffffffffffffffffffffffffffff\n      and\n      0xb9db15b4\n        /* \"ProdArch.sol\":4974:4984  _productId */\n      dup6\n        /* \"ProdArch.sol\":4954:4985  registry.getProduct(_productId) */\n      mload(0x40)\n      dup3\n      0xffffffff\n      and\n      0xe0\n      shl\n      dup2\n      mstore\n      0x04\n      add\n      tag_43\n      swap2\n      swap1\n      tag_29\n      jump\t// in\n    tag_43:\n      0x00\n      mload(0x40)\n      dup1\n      dup4\n      sub\n      dup2\n      dup7\n      gas\n      staticcall\n      iszero\n      dup1\n      iszero\n      tag_45\n      jumpi\n      returndatacopy(0x00, 0x00, returndatasize)\n      revert(0x00, returndatasize)\n    tag_45:\n      pop\n      pop\n      pop\n      pop\n      mload(0x40)\n      returndatasize\n      0x00\n      dup3\n      returndatacopy\n      returndatasize\n      not(0x1f)\n      0x1f\n      dup3\n      add\n      and\n      dup3\n      add\n      dup1\n      0x40\n      mstore\n      pop\n      dup2\n      add\n      swap1\n      tag_46\n      swap2\n      swap1\n      tag_33\n      jump\t// in\n    tag_46:\n        /* \"ProdArch.sol\":4813:4985  (... */\n      pop\n      pop\n      swap5\n      pop\n      pop\n      pop\n      pop\n      pop\n        /* \"ProdArch.sol\":5079:5097  _manualHashToCheck */\n      dup3\n        /* \"ProdArch.sol\":5062:5098  abi.encodePacked(_manualHashToCheck) */\n      add(0x20, mload(0x40))\n      tag_47\n      swap2\n      swap1\n      tag_40\n      jump\t// in\n    tag_47:\n      mload(0x40)\n      0x20\n      dup2\n      dup4\n      sub\n      sub\n      dup2\n      mstore\n      swap1\n      0x40\n      mstore\n        /* \"ProdArch.sol\":5052:5099  keccak256(abi.encodePacked(_manualHashToCheck)) */\n      dup1\n      mload\n      swap1\n      0x20\n      add\n      keccak256\n        /* \"ProdArch.sol\":5030:5046  storedManualHash */\n      dup2\n        /* \"ProdArch.sol\":5013:5047  abi.encodePacked(storedManualHash) */\n      add(0x20, mload(0x40))\n      tag_48\n      swap2\n      swap1\n      tag_40\n      jump\t// in\n    tag_48:\n      mload(0x40)\n      0x20\n      dup2\n      dup4\n      sub\n      sub\n      dup2\n      mstore\n      swap1\n      0x40\n      mstore\n        /* \"ProdArch.sol\":5003:5048  keccak256(abi.encodePacked(storedManualHash)) */\n      dup1\n      mload\n      swap1\n      0x20\n      add\n      keccak256\n        /* \"ProdArch.sol\":5003:5099  keccak256(abi.encodePacked(storedManualHash)) == keccak256(abi.encodePacked(_manualHashToCheck)) */\n      eq\n        /* \"ProdArch.sol\":4996:5099  return keccak256(abi.encodePacked(storedManualHash)) == keccak256(abi.encodePacked(_manualHashToCheck)) */\n      swap2\n      pop\n      pop\n        /* \"ProdArch.sol\":4681:5106  function verifyManual(... */\n      swap3\n      swap2\n      pop\n      pop\n      jump\t// out\n        /* \"#utility.yul\":7:82   */\n    tag_49:\n        /* \"#utility.yul\":40:46   */\n      0x00\n        /* \"#utility.yul\":73:75   */\n      0x40\n        /* \"#utility.yul\":67:76   */\n      mload\n        /* \"#utility.yul\":57:76   */\n      swap1\n      pop\n        /* \"#utility.yul\":7:82   */\n      swap1\n      jump\t// out\n        /* \"#utility.yul\":88:205   */\n    tag_50:\n        /* \"#utility.yul\":197:198   */\n      0x00\n        /* \"#utility.yul\":194:195   */\n      0x00\n        /* \"#utility.yul\":187:199   */\n      revert\n        /* \"#utility.yul\":211:328   */\n    tag_51:\n        /* \"#utility.yul\":320:321   */\n      0x00\n        /* \"#utility.yul\":317:318   */\n      0x00\n        /* \"#utility.yul\":310:322   */\n      revert\n        /* \"#utility.yul\":334:411   */\n    tag_52:\n        /* \"#utility.yul\":371:378   */\n      0x00\n        /* \"#utility.yul\":400:405   */\n      dup2\n        /* \"#utility.yul\":389:405   */\n      swap1\n      pop\n        /* \"#utility.yul\":334:411   */\n      swap2\n      swap1\n      pop\n      jump\t// out\n        /* \"#utility.yul\":417:539   */\n    tag_53:\n        /* \"#utility.yul\":490:514   */\n      tag_88\n        /* \"#utility.yul\":508:513   */\n      dup2\n        /* \"#utility.yul\":490:514   */\n      tag_52\n      jump\t// in\n    tag_88:\n        /* \"#utility.yul\":483:488   */\n      dup2\n        /* \"#utility.yul\":480:515   */\n      eq\n        /* \"#utility.yul\":470:533   */\n      tag_89\n      jumpi\n        /* \"#utility.yul\":529:530   */\n      0x00\n        /* \"#utility.yul\":526:527   */\n      0x00\n        /* \"#utility.yul\":519:531   */\n      revert\n        /* \"#utility.yul\":470:533   */\n    tag_89:\n        /* \"#utility.yul\":417:539   */\n      pop\n      jump\t// out\n        /* \"#utility.yul\":545:684   */\n    tag_54:\n        /* \"#utility.yul\":591:596   */\n      0x00\n        /* \"#utility.yul\":629:635   */\n      dup2\n        /* \"#utility.yul\":616:636   */\n      calldataload\n        /* \"#utility.yul\":607:636   */\n      swap1\n      pop\n        /* \"#utility.yul\":645:678   */\n      tag_91\n        /* \"#utility.yul\":672:677   */\n      dup2\n        /* \"#utility.yul\":645:678   */\n      tag_53\n      jump\t// in\n    tag_91:\n        /* \"#utility.yul\":545:684   */\n      swap3\n      swap2\n      pop\n      pop\n      jump\t// out\n        /* \"#utility.yul\":690:1019   */\n    tag_9:\n        /* \"#utility.yul\":749:755   */\n      0x00\n        /* \"#utility.yul\":798:800   */\n      0x20\n        /* \"#utility.yul\":786:795   */\n      dup3\n        /* \"#utility.yul\":777:784   */\n      dup5\n        /* \"#utility.yul\":773:796   */\n      sub\n        /* \"#utility.yul\":769:801   */\n      slt\n        /* \"#utility.yul\":766:885   */\n      iszero\n      tag_93\n      jumpi\n        /* \"#utility.yul\":804:883   */\n      tag_94\n      tag_50\n      jump\t// in\n    tag_94:\n        /* \"#utility.yul\":766:885   */\n    tag_93:\n        /* \"#utility.yul\":924:925   */\n      0x00\n        /* \"#utility.yul\":949:1002   */\n      tag_95\n        /* \"#utility.yul\":994:1001   */\n      dup5\n        /* \"#utility.yul\":985:991   */\n      dup3\n        /* \"#utility.yul\":974:983   */\n      dup6\n        /* \"#utility.yul\":970:992   */\n      add\n        /* \"#utility.yul\":949:1002   */\n      tag_54\n      jump\t// in\n    tag_95:\n        /* \"#utility.yul\":939:1002   */\n      swap2\n      pop\n        /* \"#utility.yul\":895:1012   */\n      pop\n        /* \"#utility.yul\":690:1019   */\n      swap3\n      swap2\n      pop\n      pop\n      jump\t// out\n        /* \"#utility.yul\":1025:1124   */\n    tag_55:\n        /* \"#utility.yul\":1077:1083   */\n      0x00\n        /* \"#utility.yul\":1111:1116   */\n      dup2\n        /* \"#utility.yul\":1105:1117   */\n      mload\n        /* \"#utility.yul\":1095:1117   */\n      swap1\n      pop\n        /* \"#utility.yul\":1025:1124   */\n      swap2\n      swap1\n      pop\n      jump\t// out\n        /* \"#utility.yul\":1130:1299   */\n    tag_56:\n        /* \"#utility.yul\":1214:1225   */\n      0x00\n        /* \"#utility.yul\":1248:1254   */\n      dup3\n        /* \"#utility.yul\":1243:1246   */\n      dup3\n        /* \"#utility.yul\":1236:1255   */\n      mstore\n        /* \"#utility.yul\":1288:1292   */\n      0x20\n        /* \"#utility.yul\":1283:1286   */\n      dup3\n        /* \"#utility.yul\":1279:1293   */\n      add\n        /* \"#utility.yul\":1264:1293   */\n      swap1\n      pop\n        /* \"#utility.yul\":1130:1299   */\n      swap3\n      swap2\n      pop\n      pop\n      jump\t// out\n        /* \"#utility.yul\":1305:1444   */\n    tag_57:\n        /* \"#utility.yul\":1394:1400   */\n      dup3\n        /* \"#utility.yul\":1389:1392   */\n      dup2\n        /* \"#utility.yul\":1384:1387   */\n      dup4\n        /* \"#utility.yul\":1378:1401   */\n      mcopy\n        /* \"#utility.yul\":1435:1436   */\n      0x00\n        /* \"#utility.yul\":1426:1432   */\n      dup4\n        /* \"#utility.yul\":1421:1424   */\n      dup4\n        /* \"#utility.yul\":1417:1433   */\n      add\n        /* \"#utility.yul\":1410:1437   */\n      mstore\n        /* \"#utility.yul\":1305:1444   */\n      pop\n      pop\n      pop\n      jump\t// out\n        /* \"#utility.yul\":1450:1552   */\n    tag_58:\n        /* \"#utility.yul\":1491:1497   */\n      0x00\n        /* \"#utility.yul\":1542:1544   */\n      0x1f\n        /* \"#utility.yul\":1538:1545   */\n      not\n        /* \"#utility.yul\":1533:1535   */\n      0x1f\n        /* \"#utility.yul\":1526:1531   */\n      dup4\n        /* \"#utility.yul\":1522:1536   */\n      add\n        /* \"#utility.yul\":1518:1546   */\n      and\n        /* \"#utility.yul\":1508:1546   */\n      swap1\n      pop\n        /* \"#utility.yul\":1450:1552   */\n      swap2\n      swap1\n      pop\n      jump\t// out\n        /* \"#utility.yul\":1558:1935   */\n    tag_59:\n        /* \"#utility.yul\":1646:1649   */\n      0x00\n        /* \"#utility.yul\":1674:1713   */\n      tag_101\n        /* \"#utility.yul\":1707:1712   */\n      dup3\n        /* \"#utility.yul\":1674:1713   */\n      tag_55\n      jump\t// in\n    tag_101:\n        /* \"#utility.yul\":1729:1800   */\n      tag_102\n        /* \"#utility.yul\":1793:1799   */\n      dup2\n        /* \"#utility.yul\":1788:1791   */\n      dup6\n        /* \"#utility.yul\":1729:1800   */\n      tag_56\n      jump\t// in\n    tag_102:\n        /* \"#utility.yul\":1722:1800   */\n      swap4\n      pop\n        /* \"#utility.yul\":1809:1874   */\n      tag_103\n        /* \"#utility.yul\":1867:1873   */\n      dup2\n        /* \"#utility.yul\":1862:1865   */\n      dup6\n        /* \"#utility.yul\":1855:1859   */\n      0x20\n        /* \"#utility.yul\":1848:1853   */\n      dup7\n        /* \"#utility.yul\":1844:1860   */\n      add\n        /* \"#utility.yul\":1809:1874   */\n      tag_57\n      jump\t// in\n    tag_103:\n        /* \"#utility.yul\":1899:1928   */\n      tag_104\n        /* \"#utility.yul\":1921:1927   */\n      dup2\n        /* \"#utility.yul\":1899:1928   */\n      tag_58\n      jump\t// in\n    tag_104:\n        /* \"#utility.yul\":1894:1897   */\n      dup5\n        /* \"#utility.yul\":1890:1929   */\n      add\n        /* \"#utility.yul\":1883:1929   */\n      swap2\n      pop\n        /* \"#utility.yul\":1650:1935   */\n      pop\n        /* \"#utility.yul\":1558:1935   */\n      swap3\n      swap2\n      pop\n      pop\n      jump\t// out\n        /* \"#utility.yul\":1941:3464   */\n    tag_12:\n        /* \"#utility.yul\":2342:2346   */\n      0x00\n        /* \"#utility.yul\":2380:2383   */\n      0xe0\n        /* \"#utility.yul\":2369:2378   */\n      dup3\n        /* \"#utility.yul\":2365:2384   */\n      add\n        /* \"#utility.yul\":2357:2384   */\n      swap1\n      pop\n        /* \"#utility.yul\":2430:2439   */\n      dup2\n        /* \"#utility.yul\":2424:2428   */\n      dup2\n        /* \"#utility.yul\":2420:2440   */\n      sub\n        /* \"#utility.yul\":2416:2417   */\n      0x00\n        /* \"#utility.yul\":2405:2414   */\n      dup4\n        /* \"#utility.yul\":2401:2418   */\n      add\n        /* \"#utility.yul\":2394:2441   */\n      mstore\n        /* \"#utility.yul\":2458:2536   */\n      tag_106\n        /* \"#utility.yul\":2531:2535   */\n      dup2\n        /* \"#utility.yul\":2522:2528   */\n      dup11\n        /* \"#utility.yul\":2458:2536   */\n      tag_59\n      jump\t// in\n    tag_106:\n        /* \"#utility.yul\":2450:2536   */\n      swap1\n      pop\n        /* \"#utility.yul\":2583:2592   */\n      dup2\n        /* \"#utility.yul\":2577:2581   */\n      dup2\n        /* \"#utility.yul\":2573:2593   */\n      sub\n        /* \"#utility.yul\":2568:2570   */\n      0x20\n        /* \"#utility.yul\":2557:2566   */\n      dup4\n        /* \"#utility.yul\":2553:2571   */\n      add\n        /* \"#utility.yul\":2546:2594   */\n      mstore\n        /* \"#utility.yul\":2611:2689   */\n      tag_107\n        /* \"#utility.yul\":2684:2688   */\n      dup2\n        /* \"#utility.yul\":2675:2681   */\n      dup10\n        /* \"#utility.yul\":2611:2689   */\n      tag_59\n      jump\t// in\n    tag_107:\n        /* \"#utility.yul\":2603:2689   */\n      swap1\n      pop\n        /* \"#utility.yul\":2736:2745   */\n      dup2\n        /* \"#utility.yul\":2730:2734   */\n      dup2\n        /* \"#utility.yul\":2726:2746   */\n      sub\n        /* \"#utility.yul\":2721:2723   */\n      0x40\n        /* \"#utility.yul\":2710:2719   */\n      dup4\n        /* \"#utility.yul\":2706:2724   */\n      add\n        /* \"#utility.yul\":2699:2747   */\n      mstore\n        /* \"#utility.yul\":2764:2842   */\n      tag_108\n        /* \"#utility.yul\":2837:2841   */\n      dup2\n        /* \"#utility.yul\":2828:2834   */\n      dup9\n        /* \"#utility.yul\":2764:2842   */\n      tag_59\n      jump\t// in\n    tag_108:\n        /* \"#utility.yul\":2756:2842   */\n      swap1\n      pop\n        /* \"#utility.yul\":2889:2898   */\n      dup2\n        /* \"#utility.yul\":2883:2887   */\n      dup2\n        /* \"#utility.yul\":2879:2899   */\n      sub\n        /* \"#utility.yul\":2874:2876   */\n      0x60\n        /* \"#utility.yul\":2863:2872   */\n      dup4\n        /* \"#utility.yul\":2859:2877   */\n      add\n        /* \"#utility.yul\":2852:2900   */\n      mstore\n        /* \"#utility.yul\":2917:2995   */\n      tag_109\n        /* \"#utility.yul\":2990:2994   */\n      dup2\n        /* \"#utility.yul\":2981:2987   */\n      dup8\n        /* \"#utility.yul\":2917:2995   */\n      tag_59\n      jump\t// in\n    tag_109:\n        /* \"#utility.yul\":2909:2995   */\n      swap1\n      pop\n        /* \"#utility.yul\":3043:3052   */\n      dup2\n        /* \"#utility.yul\":3037:3041   */\n      dup2\n        /* \"#utility.yul\":3033:3053   */\n      sub\n        /* \"#utility.yul\":3027:3030   */\n      0x80\n        /* \"#utility.yul\":3016:3025   */\n      dup4\n        /* \"#utility.yul\":3012:3031   */\n      add\n        /* \"#utility.yul\":3005:3054   */\n      mstore\n        /* \"#utility.yul\":3071:3149   */\n      tag_110\n        /* \"#utility.yul\":3144:3148   */\n      dup2\n        /* \"#utility.yul\":3135:3141   */\n      dup7\n        /* \"#utility.yul\":3071:3149   */\n      tag_59\n      jump\t// in\n    tag_110:\n        /* \"#utility.yul\":3063:3149   */\n      swap1\n      pop\n        /* \"#utility.yul\":3197:3206   */\n      dup2\n        /* \"#utility.yul\":3191:3195   */\n      dup2\n        /* \"#utility.yul\":3187:3207   */\n      sub\n        /* \"#utility.yul\":3181:3184   */\n      0xa0\n        /* \"#utility.yul\":3170:3179   */\n      dup4\n        /* \"#utility.yul\":3166:3185   */\n      add\n        /* \"#utility.yul\":3159:3208   */\n      mstore\n        /* \"#utility.yul\":3225:3303   */\n      tag_111\n        /* \"#utility.yul\":3298:3302   */\n      dup2\n        /* \"#utility.yul\":3289:3295   */\n      dup6\n        /* \"#utility.yul\":3225:3303   */\n      tag_59\n      jump\t// in\n    tag_111:\n        /* \"#utility.yul\":3217:3303   */\n      swap1\n      pop\n        /* \"#utility.yul\":3351:3360   */\n      dup2\n        /* \"#utility.yul\":3345:3349   */\n      dup2\n        /* \"#utility.yul\":3341:3361   */\n      sub\n        /* \"#utility.yul\":3335:3338   */\n      0xc0\n        /* \"#utility.yul\":3324:3333   */\n      dup4\n        /* \"#utility.yul\":3320:3339   */\n      add\n        /* \"#utility.yul\":3313:3362   */\n      mstore\n        /* \"#utility.yul\":3379:3457   */\n      tag_112\n        /* \"#utility.yul\":3452:3456   */\n      dup2\n        /* \"#utility.yul\":3443:3449   */\n      dup5\n        /* \"#utility.yul\":3379:3457   */\n      tag_59\n      jump\t// in\n    tag_112:\n        /* \"#utility.yul\":3371:3457   */\n      swap1\n      pop\n        /* \"#utility.yul\":1941:3464   */\n      swap9\n      swap8\n      pop\n      pop\n      pop\n      pop\n      pop\n      pop\n      pop\n      pop\n      jump\t// out\n        /* \"#utility.yul\":3470:3587   */\n    tag_60:\n        /* \"#utility.yul\":3579:3580   */\n      0x00\n        /* \"#utility.yul\":3576:3577   */\n      0x00\n        /* \"#utility.yul\":3569:3581   */\n      revert\n        /* \"#utility.yul\":3593:3710   */\n    tag_61:\n        /* \"#utility.yul\":3702:3703   */\n      0x00\n        /* \"#utility.yul\":3699:3700   */\n      0x00\n        /* \"#utility.yul\":3692:3704   */\n      revert\n        /* \"#utility.yul\":3716:3896   */\n    tag_62:\n        /* \"#utility.yul\":3764:3841   */\n      0x4e487b7100000000000000000000000000000000000000000000000000000000\n        /* \"#utility.yul\":3761:3762   */\n      0x00\n        /* \"#utility.yul\":3754:3842   */\n      mstore\n        /* \"#utility.yul\":3861:3865   */\n      0x41\n        /* \"#utility.yul\":3858:3859   */\n      0x04\n        /* \"#utility.yul\":3851:3866   */\n      mstore\n        /* \"#utility.yul\":3885:3889   */\n      0x24\n        /* \"#utility.yul\":3882:3883   */\n      0x00\n        /* \"#utility.yul\":3875:3890   */\n      revert\n        /* \"#utility.yul\":3902:4183   */\n    tag_63:\n        /* \"#utility.yul\":3985:4012   */\n      tag_117\n        /* \"#utility.yul\":4007:4011   */\n      dup3\n        /* \"#utility.yul\":3985:4012   */\n      tag_58\n      jump\t// in\n    tag_117:\n        /* \"#utility.yul\":3977:3983   */\n      dup2\n        /* \"#utility.yul\":3973:4013   */\n      add\n        /* \"#utility.yul\":4115:4121   */\n      dup2\n        /* \"#utility.yul\":4103:4113   */\n      dup2\n        /* \"#utility.yul\":4100:4122   */\n      lt\n        /* \"#utility.yul\":4079:4097   */\n      0xffffffffffffffff\n        /* \"#utility.yul\":4067:4077   */\n      dup3\n        /* \"#utility.yul\":4064:4098   */\n      gt\n        /* \"#utility.yul\":4061:4123   */\n      or\n        /* \"#utility.yul\":4058:4146   */\n      iszero\n      tag_118\n      jumpi\n        /* \"#utility.yul\":4126:4144   */\n      tag_119\n      tag_62\n      jump\t// in\n    tag_119:\n        /* \"#utility.yul\":4058:4146   */\n    tag_118:\n        /* \"#utility.yul\":4166:4176   */\n      dup1\n        /* \"#utility.yul\":4162:4164   */\n      0x40\n        /* \"#utility.yul\":4155:4177   */\n      mstore\n        /* \"#utility.yul\":3945:4183   */\n      pop\n        /* \"#utility.yul\":3902:4183   */\n      pop\n      pop\n      jump\t// out\n        /* \"#utility.yul\":4189:4318   */\n    tag_64:\n        /* \"#utility.yul\":4223:4229   */\n      0x00\n        /* \"#utility.yul\":4250:4270   */\n      tag_121\n      tag_49\n      jump\t// in\n    tag_121:\n        /* \"#utility.yul\":4240:4270   */\n      swap1\n      pop\n        /* \"#utility.yul\":4279:4312   */\n      tag_122\n        /* \"#utility.yul\":4307:4311   */\n      dup3\n        /* \"#utility.yul\":4299:4305   */\n      dup3\n        /* \"#utility.yul\":4279:4312   */\n      tag_63\n      jump\t// in\n    tag_122:\n        /* \"#utility.yul\":4189:4318   */\n      swap2\n      swap1\n      pop\n      jump\t// out\n        /* \"#utility.yul\":4324:4632   */\n    tag_65:\n        /* \"#utility.yul\":4386:4390   */\n      0x00\n        /* \"#utility.yul\":4476:4494   */\n      0xffffffffffffffff\n        /* \"#utility.yul\":4468:4474   */\n      dup3\n        /* \"#utility.yul\":4465:4495   */\n      gt\n        /* \"#utility.yul\":4462:4518   */\n      iszero\n      tag_124\n      jumpi\n        /* \"#utility.yul\":4498:4516   */\n      tag_125\n      tag_62\n      jump\t// in\n    tag_125:\n        /* \"#utility.yul\":4462:4518   */\n    tag_124:\n        /* \"#utility.yul\":4536:4565   */\n      tag_126\n        /* \"#utility.yul\":4558:4564   */\n      dup3\n        /* \"#utility.yul\":4536:4565   */\n      tag_58\n      jump\t// in\n    tag_126:\n        /* \"#utility.yul\":4528:4565   */\n      swap1\n      pop\n        /* \"#utility.yul\":4620:4624   */\n      0x20\n        /* \"#utility.yul\":4614:4618   */\n      dup2\n        /* \"#utility.yul\":4610:4625   */\n      add\n        /* \"#utility.yul\":4602:4625   */\n      swap1\n      pop\n        /* \"#utility.yul\":4324:4632   */\n      swap2\n      swap1\n      pop\n      jump\t// out\n        /* \"#utility.yul\":4638:4786   */\n    tag_66:\n        /* \"#utility.yul\":4736:4742   */\n      dup3\n        /* \"#utility.yul\":4731:4734   */\n      dup2\n        /* \"#utility.yul\":4726:4729   */\n      dup4\n        /* \"#utility.yul\":4713:4743   */\n      calldatacopy\n        /* \"#utility.yul\":4777:4778   */\n      0x00\n        /* \"#utility.yul\":4768:4774   */\n      dup4\n        /* \"#utility.yul\":4763:4766   */\n      dup4\n        /* \"#utility.yul\":4759:4775   */\n      add\n        /* \"#utility.yul\":4752:4779   */\n      mstore\n        /* \"#utility.yul\":4638:4786   */\n      pop\n      pop\n      pop\n      jump\t// out\n        /* \"#utility.yul\":4792:5217   */\n    tag_67:\n        /* \"#utility.yul\":4870:4875   */\n      0x00\n        /* \"#utility.yul\":4895:4961   */\n      tag_129\n        /* \"#utility.yul\":4911:4960   */\n      tag_130\n        /* \"#utility.yul\":4953:4959   */\n      dup5\n        /* \"#utility.yul\":4911:4960   */\n      tag_65\n      jump\t// in\n    tag_130:\n        /* \"#utility.yul\":4895:4961   */\n      tag_64\n      jump\t// in\n    tag_129:\n        /* \"#utility.yul\":4886:4961   */\n      swap1\n      pop\n        /* \"#utility.yul\":4984:4990   */\n      dup3\n        /* \"#utility.yul\":4977:4982   */\n      dup2\n        /* \"#utility.yul\":4970:4991   */\n      mstore\n        /* \"#utility.yul\":5022:5026   */\n      0x20\n        /* \"#utility.yul\":5015:5020   */\n      dup2\n        /* \"#utility.yul\":5011:5027   */\n      add\n        /* \"#utility.yul\":5060:5063   */\n      dup5\n        /* \"#utility.yul\":5051:5057   */\n      dup5\n        /* \"#utility.yul\":5046:5049   */\n      dup5\n        /* \"#utility.yul\":5042:5058   */\n      add\n        /* \"#utility.yul\":5039:5064   */\n      gt\n        /* \"#utility.yul\":5036:5148   */\n      iszero\n      tag_131\n      jumpi\n        /* \"#utility.yul\":5067:5146   */\n      tag_132\n      tag_61\n      jump\t// in\n    tag_132:\n        /* \"#utility.yul\":5036:5148   */\n    tag_131:\n        /* \"#utility.yul\":5157:5211   */\n      tag_133\n        /* \"#utility.yul\":5204:5210   */\n      dup5\n        /* \"#utility.yul\":5199:5202   */\n      dup3\n        /* \"#utility.yul\":5194:5197   */\n      dup6\n        /* \"#utility.yul\":5157:5211   */\n      tag_66\n      jump\t// in\n    tag_133:\n        /* \"#utility.yul\":4876:5217   */\n      pop\n        /* \"#utility.yul\":4792:5217   */\n      swap4\n      swap3\n      pop\n      pop\n      pop\n      jump\t// out\n        /* \"#utility.yul\":5237:5577   */\n    tag_68:\n        /* \"#utility.yul\":5293:5298   */\n      0x00\n        /* \"#utility.yul\":5342:5345   */\n      dup3\n        /* \"#utility.yul\":5335:5339   */\n      0x1f\n        /* \"#utility.yul\":5327:5333   */\n      dup4\n        /* \"#utility.yul\":5323:5340   */\n      add\n        /* \"#utility.yul\":5319:5346   */\n      slt\n        /* \"#utility.yul\":5309:5431   */\n      tag_135\n      jumpi\n        /* \"#utility.yul\":5350:5429   */\n      tag_136\n      tag_60\n      jump\t// in\n    tag_136:\n        /* \"#utility.yul\":5309:5431   */\n    tag_135:\n        /* \"#utility.yul\":5467:5473   */\n      dup2\n        /* \"#utility.yul\":5454:5474   */\n      calldataload\n        /* \"#utility.yul\":5492:5571   */\n      tag_137\n        /* \"#utility.yul\":5567:5570   */\n      dup5\n        /* \"#utility.yul\":5559:5565   */\n      dup3\n        /* \"#utility.yul\":5552:5556   */\n      0x20\n        /* \"#utility.yul\":5544:5550   */\n      dup7\n        /* \"#utility.yul\":5540:5557   */\n      add\n        /* \"#utility.yul\":5492:5571   */\n      tag_67\n      jump\t// in\n    tag_137:\n        /* \"#utility.yul\":5483:5571   */\n      swap2\n      pop\n        /* \"#utility.yul\":5299:5577   */\n      pop\n        /* \"#utility.yul\":5237:5577   */\n      swap3\n      swap2\n      pop\n      pop\n      jump\t// out\n        /* \"#utility.yul\":5583:6237   */\n    tag_15:\n        /* \"#utility.yul\":5661:5667   */\n      0x00\n        /* \"#utility.yul\":5669:5675   */\n      0x00\n        /* \"#utility.yul\":5718:5720   */\n      0x40\n        /* \"#utility.yul\":5706:5715   */\n      dup4\n        /* \"#utility.yul\":5697:5704   */\n      dup6\n        /* \"#utility.yul\":5693:5716   */\n      sub\n        /* \"#utility.yul\":5689:5721   */\n      slt\n        /* \"#utility.yul\":5686:5805   */\n      iszero\n      tag_139\n      jumpi\n        /* \"#utility.yul\":5724:5803   */\n      tag_140\n      tag_50\n      jump\t// in\n    tag_140:\n        /* \"#utility.yul\":5686:5805   */\n    tag_139:\n        /* \"#utility.yul\":5844:5845   */\n      0x00\n        /* \"#utility.yul\":5869:5922   */\n      tag_141\n        /* \"#utility.yul\":5914:5921   */\n      dup6\n        /* \"#utility.yul\":5905:5911   */\n      dup3\n        /* \"#utility.yul\":5894:5903   */\n      dup7\n        /* \"#utility.yul\":5890:5912   */\n      add\n        /* \"#utility.yul\":5869:5922   */\n      tag_54\n      jump\t// in\n    tag_141:\n        /* \"#utility.yul\":5859:5922   */\n      swap3\n      pop\n        /* \"#utility.yul\":5815:5932   */\n      pop\n        /* \"#utility.yul\":5999:6001   */\n      0x20\n        /* \"#utility.yul\":5988:5997   */\n      dup4\n        /* \"#utility.yul\":5984:6002   */\n      add\n        /* \"#utility.yul\":5971:6003   */\n      calldataload\n        /* \"#utility.yul\":6030:6048   */\n      0xffffffffffffffff\n        /* \"#utility.yul\":6022:6028   */\n      dup2\n        /* \"#utility.yul\":6019:6049   */\n      gt\n        /* \"#utility.yul\":6016:6133   */\n      iszero\n      tag_142\n      jumpi\n        /* \"#utility.yul\":6052:6131   */\n      tag_143\n      tag_51\n      jump\t// in\n    tag_143:\n        /* \"#utility.yul\":6016:6133   */\n    tag_142:\n        /* \"#utility.yul\":6157:6220   */\n      tag_144\n        /* \"#utility.yul\":6212:6219   */\n      dup6\n        /* \"#utility.yul\":6203:6209   */\n      dup3\n        /* \"#utility.yul\":6192:6201   */\n      dup7\n        /* \"#utility.yul\":6188:6210   */\n      add\n        /* \"#utility.yul\":6157:6220   */\n      tag_68\n      jump\t// in\n    tag_144:\n        /* \"#utility.yul\":6147:6220   */\n      swap2\n      pop\n        /* \"#utility.yul\":5942:6230   */\n      pop\n        /* \"#utility.yul\":5583:6237   */\n      swap3\n      pop\n      swap3\n      swap1\n      pop\n      jump\t// out\n        /* \"#utility.yul\":6243:6333   */\n    tag_69:\n        /* \"#utility.yul\":6277:6284   */\n      0x00\n        /* \"#utility.yul\":6320:6325   */\n      dup2\n        /* \"#utility.yul\":6313:6326   */\n      iszero\n        /* \"#utility.yul\":6306:6327   */\n      iszero\n        /* \"#utility.yul\":6295:6327   */\n      swap1\n      pop\n        /* \"#utility.yul\":6243:6333   */\n      swap2\n      swap1\n      pop\n      jump\t// out\n        /* \"#utility.yul\":6339:6448   */\n    tag_70:\n        /* \"#utility.yul\":6420:6441   */\n      tag_147\n        /* \"#utility.yul\":6435:6440   */\n      dup2\n        /* \"#utility.yul\":6420:6441   */\n      tag_69\n      jump\t// in\n    tag_147:\n        /* \"#utility.yul\":6415:6418   */\n      dup3\n        /* \"#utility.yul\":6408:6442   */\n      mstore\n        /* \"#utility.yul\":6339:6448   */\n      pop\n      pop\n      jump\t// out\n        /* \"#utility.yul\":6454:6664   */\n    tag_18:\n        /* \"#utility.yul\":6541:6545   */\n      0x00\n        /* \"#utility.yul\":6579:6581   */\n      0x20\n        /* \"#utility.yul\":6568:6577   */\n      dup3\n        /* \"#utility.yul\":6564:6582   */\n      add\n        /* \"#utility.yul\":6556:6582   */\n      swap1\n      pop\n        /* \"#utility.yul\":6592:6657   */\n      tag_149\n        /* \"#utility.yul\":6654:6655   */\n      0x00\n        /* \"#utility.yul\":6643:6652   */\n      dup4\n        /* \"#utility.yul\":6639:6656   */\n      add\n        /* \"#utility.yul\":6630:6636   */\n      dup5\n        /* \"#utility.yul\":6592:6657   */\n      tag_70\n      jump\t// in\n    tag_149:\n        /* \"#utility.yul\":6454:6664   */\n      swap3\n      swap2\n      pop\n      pop\n      jump\t// out\n        /* \"#utility.yul\":6670:6796   */\n    tag_71:\n        /* \"#utility.yul\":6707:6714   */\n      0x00\n        /* \"#utility.yul\":6747:6789   */\n      0xffffffffffffffffffffffffffffffffffffffff\n        /* \"#utility.yul\":6740:6745   */\n      dup3\n        /* \"#utility.yul\":6736:6790   */\n      and\n        /* \"#utility.yul\":6725:6790   */\n      swap1\n      pop\n        /* \"#utility.yul\":6670:6796   */\n      swap2\n      swap1\n      pop\n      jump\t// out\n        /* \"#utility.yul\":6802:6862   */\n    tag_72:\n        /* \"#utility.yul\":6830:6833   */\n      0x00\n        /* \"#utility.yul\":6851:6856   */\n      dup2\n        /* \"#utility.yul\":6844:6856   */\n      swap1\n      pop\n        /* \"#utility.yul\":6802:6862   */\n      swap2\n      swap1\n      pop\n      jump\t// out\n        /* \"#utility.yul\":6868:7010   */\n    tag_73:\n        /* \"#utility.yul\":6918:6927   */\n      0x00\n        /* \"#utility.yul\":6951:7004   */\n      tag_153\n        /* \"#utility.yul\":6969:7003   */\n      tag_154\n        /* \"#utility.yul\":6978:7002   */\n      tag_155\n        /* \"#utility.yul\":6996:7001   */\n      dup5\n        /* \"#utility.yul\":6978:7002   */\n      tag_71\n      jump\t// in\n    tag_155:\n        /* \"#utility.yul\":6969:7003   */\n      tag_72\n      jump\t// in\n    tag_154:\n        /* \"#utility.yul\":6951:7004   */\n      tag_71\n      jump\t// in\n    tag_153:\n        /* \"#utility.yul\":6938:7004   */\n      swap1\n      pop\n        /* \"#utility.yul\":6868:7010   */\n      swap2\n      swap1\n      pop\n      jump\t// out\n        /* \"#utility.yul\":7016:7142   */\n    tag_74:\n        /* \"#utility.yul\":7066:7075   */\n      0x00\n        /* \"#utility.yul\":7099:7136   */\n      tag_157\n        /* \"#utility.yul\":7130:7135   */\n      dup3\n        /* \"#utility.yul\":7099:7136   */\n      tag_73\n      jump\t// in\n    tag_157:\n        /* \"#utility.yul\":7086:7136   */\n      swap1\n      pop\n        /* \"#utility.yul\":7016:7142   */\n      swap2\n      swap1\n      pop\n      jump\t// out\n        /* \"#utility.yul\":7148:7297   */\n    tag_75:\n        /* \"#utility.yul\":7221:7230   */\n      0x00\n        /* \"#utility.yul\":7254:7291   */\n      tag_159\n        /* \"#utility.yul\":7285:7290   */\n      dup3\n        /* \"#utility.yul\":7254:7291   */\n      tag_74\n      jump\t// in\n    tag_159:\n        /* \"#utility.yul\":7241:7291   */\n      swap1\n      pop\n        /* \"#utility.yul\":7148:7297   */\n      swap2\n      swap1\n      pop\n      jump\t// out\n        /* \"#utility.yul\":7303:7480   */\n    tag_76:\n        /* \"#utility.yul\":7413:7473   */\n      tag_161\n        /* \"#utility.yul\":7467:7472   */\n      dup2\n        /* \"#utility.yul\":7413:7473   */\n      tag_75\n      jump\t// in\n    tag_161:\n        /* \"#utility.yul\":7408:7411   */\n      dup3\n        /* \"#utility.yul\":7401:7474   */\n      mstore\n        /* \"#utility.yul\":7303:7480   */\n      pop\n      pop\n      jump\t// out\n        /* \"#utility.yul\":7486:7754   */\n    tag_22:\n        /* \"#utility.yul\":7602:7606   */\n      0x00\n        /* \"#utility.yul\":7640:7642   */\n      0x20\n        /* \"#utility.yul\":7629:7638   */\n      dup3\n        /* \"#utility.yul\":7625:7643   */\n      add\n        /* \"#utility.yul\":7617:7643   */\n      swap1\n      pop\n        /* \"#utility.yul\":7653:7747   */\n      tag_163\n        /* \"#utility.yul\":7744:7745   */\n      0x00\n        /* \"#utility.yul\":7733:7742   */\n      dup4\n        /* \"#utility.yul\":7729:7746   */\n      add\n        /* \"#utility.yul\":7720:7726   */\n      dup5\n        /* \"#utility.yul\":7653:7747   */\n      tag_76\n      jump\t// in\n    tag_163:\n        /* \"#utility.yul\":7486:7754   */\n      swap3\n      swap2\n      pop\n      pop\n      jump\t// out\n        /* \"#utility.yul\":7760:7878   */\n    tag_77:\n        /* \"#utility.yul\":7847:7871   */\n      tag_165\n        /* \"#utility.yul\":7865:7870   */\n      dup2\n        /* \"#utility.yul\":7847:7871   */\n      tag_52\n      jump\t// in\n    tag_165:\n        /* \"#utility.yul\":7842:7845   */\n      dup3\n        /* \"#utility.yul\":7835:7872   */\n      mstore\n        /* \"#utility.yul\":7760:7878   */\n      pop\n      pop\n      jump\t// out\n        /* \"#utility.yul\":7884:8106   */\n    tag_29:\n        /* \"#utility.yul\":7977:7981   */\n      0x00\n        /* \"#utility.yul\":8015:8017   */\n      0x20\n        /* \"#utility.yul\":8004:8013   */\n      dup3\n        /* \"#utility.yul\":8000:8018   */\n      add\n        /* \"#utility.yul\":7992:8018   */\n      swap1\n      pop\n        /* \"#utility.yul\":8028:8099   */\n      tag_167\n        /* \"#utility.yul\":8096:8097   */\n      0x00\n        /* \"#utility.yul\":8085:8094   */\n      dup4\n        /* \"#utility.yul\":8081:8098   */\n      add\n        /* \"#utility.yul\":8072:8078   */\n      dup5\n        /* \"#utility.yul\":8028:8099   */\n      tag_77\n      jump\t// in\n    tag_167:\n        /* \"#utility.yul\":7884:8106   */\n      swap3\n      swap2\n      pop\n      pop\n      jump\t// out\n        /* \"#utility.yul\":8112:8546   */\n    tag_78:\n        /* \"#utility.yul\":8201:8206   */\n      0x00\n        /* \"#utility.yul\":8226:8292   */\n      tag_169\n        /* \"#utility.yul\":8242:8291   */\n      tag_170\n        /* \"#utility.yul\":8284:8290   */\n      dup5\n        /* \"#utility.yul\":8242:8291   */\n      tag_65\n      jump\t// in\n    tag_170:\n        /* \"#utility.yul\":8226:8292   */\n      tag_64\n      jump\t// in\n    tag_169:\n        /* \"#utility.yul\":8217:8292   */\n      swap1\n      pop\n        /* \"#utility.yul\":8315:8321   */\n      dup3\n        /* \"#utility.yul\":8308:8313   */\n      dup2\n        /* \"#utility.yul\":8301:8322   */\n      mstore\n        /* \"#utility.yul\":8353:8357   */\n      0x20\n        /* \"#utility.yul\":8346:8351   */\n      dup2\n        /* \"#utility.yul\":8342:8358   */\n      add\n        /* \"#utility.yul\":8391:8394   */\n      dup5\n        /* \"#utility.yul\":8382:8388   */\n      dup5\n        /* \"#utility.yul\":8377:8380   */\n      dup5\n        /* \"#utility.yul\":8373:8389   */\n      add\n        /* \"#utility.yul\":8370:8395   */\n      gt\n        /* \"#utility.yul\":8367:8479   */\n      iszero\n      tag_171\n      jumpi\n        /* \"#utility.yul\":8398:8477   */\n      tag_172\n      tag_61\n      jump\t// in\n    tag_172:\n        /* \"#utility.yul\":8367:8479   */\n    tag_171:\n        /* \"#utility.yul\":8488:8540   */\n      tag_173\n        /* \"#utility.yul\":8533:8539   */\n      dup5\n        /* \"#utility.yul\":8528:8531   */\n      dup3\n        /* \"#utility.yul\":8523:8526   */\n      dup6\n        /* \"#utility.yul\":8488:8540   */\n      tag_57\n      jump\t// in\n    tag_173:\n        /* \"#utility.yul\":8207:8546   */\n      pop\n        /* \"#utility.yul\":8112:8546   */\n      swap4\n      swap3\n      pop\n      pop\n      pop\n      jump\t// out\n        /* \"#utility.yul\":8566:8921   */\n    tag_79:\n        /* \"#utility.yul\":8633:8638   */\n      0x00\n        /* \"#utility.yul\":8682:8685   */\n      dup3\n        /* \"#utility.yul\":8675:8679   */\n      0x1f\n        /* \"#utility.yul\":8667:8673   */\n      dup4\n        /* \"#utility.yul\":8663:8680   */\n      add\n        /* \"#utility.yul\":8659:8686   */\n      slt\n        /* \"#utility.yul\":8649:8771   */\n      tag_175\n      jumpi\n        /* \"#utility.yul\":8690:8769   */\n      tag_176\n      tag_60\n      jump\t// in\n    tag_176:\n        /* \"#utility.yul\":8649:8771   */\n    tag_175:\n        /* \"#utility.yul\":8800:8806   */\n      dup2\n        /* \"#utility.yul\":8794:8807   */\n      mload\n        /* \"#utility.yul\":8825:8915   */\n      tag_177\n        /* \"#utility.yul\":8911:8914   */\n      dup5\n        /* \"#utility.yul\":8903:8909   */\n      dup3\n        /* \"#utility.yul\":8896:8900   */\n      0x20\n        /* \"#utility.yul\":8888:8894   */\n      dup7\n        /* \"#utility.yul\":8884:8901   */\n      add\n        /* \"#utility.yul\":8825:8915   */\n      tag_78\n      jump\t// in\n    tag_177:\n        /* \"#utility.yul\":8816:8915   */\n      swap2\n      pop\n        /* \"#utility.yul\":8639:8921   */\n      pop\n        /* \"#utility.yul\":8566:8921   */\n      swap3\n      swap2\n      pop\n      pop\n      jump\t// out\n        /* \"#utility.yul\":8927:11429   */\n    tag_33:\n        /* \"#utility.yul\":9121:9127   */\n      0x00\n        /* \"#utility.yul\":9129:9135   */\n      0x00\n        /* \"#utility.yul\":9137:9143   */\n      0x00\n        /* \"#utility.yul\":9145:9151   */\n      0x00\n        /* \"#utility.yul\":9153:9159   */\n      0x00\n        /* \"#utility.yul\":9161:9167   */\n      0x00\n        /* \"#utility.yul\":9169:9175   */\n      0x00\n        /* \"#utility.yul\":9218:9221   */\n      0xe0\n        /* \"#utility.yul\":9206:9215   */\n      dup9\n        /* \"#utility.yul\":9197:9204   */\n      dup11\n        /* \"#utility.yul\":9193:9216   */\n      sub\n        /* \"#utility.yul\":9189:9222   */\n      slt\n        /* \"#utility.yul\":9186:9306   */\n      iszero\n      tag_179\n      jumpi\n        /* \"#utility.yul\":9225:9304   */\n      tag_180\n      tag_50\n      jump\t// in\n    tag_180:\n        /* \"#utility.yul\":9186:9306   */\n    tag_179:\n        /* \"#utility.yul\":9366:9367   */\n      0x00\n        /* \"#utility.yul\":9355:9364   */\n      dup9\n        /* \"#utility.yul\":9351:9368   */\n      add\n        /* \"#utility.yul\":9345:9369   */\n      mload\n        /* \"#utility.yul\":9396:9414   */\n      0xffffffffffffffff\n        /* \"#utility.yul\":9388:9394   */\n      dup2\n        /* \"#utility.yul\":9385:9415   */\n      gt\n        /* \"#utility.yul\":9382:9499   */\n      iszero\n      tag_181\n      jumpi\n        /* \"#utility.yul\":9418:9497   */\n      tag_182\n      tag_51\n      jump\t// in\n    tag_182:\n        /* \"#utility.yul\":9382:9499   */\n    tag_181:\n        /* \"#utility.yul\":9523:9597   */\n      tag_183\n        /* \"#utility.yul\":9589:9596   */\n      dup11\n        /* \"#utility.yul\":9580:9586   */\n      dup3\n        /* \"#utility.yul\":9569:9578   */\n      dup12\n        /* \"#utility.yul\":9565:9587   */\n      add\n        /* \"#utility.yul\":9523:9597   */\n      tag_79\n      jump\t// in\n    tag_183:\n        /* \"#utility.yul\":9513:9597   */\n      swap8\n      pop\n        /* \"#utility.yul\":9316:9607   */\n      pop\n        /* \"#utility.yul\":9667:9669   */\n      0x20\n        /* \"#utility.yul\":9656:9665   */\n      dup9\n        /* \"#utility.yul\":9652:9670   */\n      add\n        /* \"#utility.yul\":9646:9671   */\n      mload\n        /* \"#utility.yul\":9698:9716   */\n      0xffffffffffffffff\n        /* \"#utility.yul\":9690:9696   */\n      dup2\n        /* \"#utility.yul\":9687:9717   */\n      gt\n        /* \"#utility.yul\":9684:9801   */\n      iszero\n      tag_184\n      jumpi\n        /* \"#utility.yul\":9720:9799   */\n      tag_185\n      tag_51\n      jump\t// in\n    tag_185:\n        /* \"#utility.yul\":9684:9801   */\n    tag_184:\n        /* \"#utility.yul\":9825:9899   */\n      tag_186\n        /* \"#utility.yul\":9891:9898   */\n      dup11\n        /* \"#utility.yul\":9882:9888   */\n      dup3\n        /* \"#utility.yul\":9871:9880   */\n      dup12\n        /* \"#utility.yul\":9867:9889   */\n      add\n        /* \"#utility.yul\":9825:9899   */\n      tag_79\n      jump\t// in\n    tag_186:\n        /* \"#utility.yul\":9815:9899   */\n      swap7\n      pop\n        /* \"#utility.yul\":9617:9909   */\n      pop\n        /* \"#utility.yul\":9969:9971   */\n      0x40\n        /* \"#utility.yul\":9958:9967   */\n      dup9\n        /* \"#utility.yul\":9954:9972   */\n      add\n        /* \"#utility.yul\":9948:9973   */\n      mload\n        /* \"#utility.yul\":10000:10018   */\n      0xffffffffffffffff\n        /* \"#utility.yul\":9992:9998   */\n      dup2\n        /* \"#utility.yul\":9989:10019   */\n      gt\n        /* \"#utility.yul\":9986:10103   */\n      iszero\n      tag_187\n      jumpi\n        /* \"#utility.yul\":10022:10101   */\n      tag_188\n      tag_51\n      jump\t// in\n    tag_188:\n        /* \"#utility.yul\":9986:10103   */\n    tag_187:\n        /* \"#utility.yul\":10127:10201   */\n      tag_189\n        /* \"#utility.yul\":10193:10200   */\n      dup11\n        /* \"#utility.yul\":10184:10190   */\n      dup3\n        /* \"#utility.yul\":10173:10182   */\n      dup12\n        /* \"#utility.yul\":10169:10191   */\n      add\n        /* \"#utility.yul\":10127:10201   */\n      tag_79\n      jump\t// in\n    tag_189:\n        /* \"#utility.yul\":10117:10201   */\n      swap6\n      pop\n        /* \"#utility.yul\":9919:10211   */\n      pop\n        /* \"#utility.yul\":10271:10273   */\n      0x60\n        /* \"#utility.yul\":10260:10269   */\n      dup9\n        /* \"#utility.yul\":10256:10274   */\n      add\n        /* \"#utility.yul\":10250:10275   */\n      mload\n        /* \"#utility.yul\":10302:10320   */\n      0xffffffffffffffff\n        /* \"#utility.yul\":10294:10300   */\n      dup2\n        /* \"#utility.yul\":10291:10321   */\n      gt\n        /* \"#utility.yul\":10288:10405   */\n      iszero\n      tag_190\n      jumpi\n        /* \"#utility.yul\":10324:10403   */\n      tag_191\n      tag_51\n      jump\t// in\n    tag_191:\n        /* \"#utility.yul\":10288:10405   */\n    tag_190:\n        /* \"#utility.yul\":10429:10503   */\n      tag_192\n        /* \"#utility.yul\":10495:10502   */\n      dup11\n        /* \"#utility.yul\":10486:10492   */\n      dup3\n        /* \"#utility.yul\":10475:10484   */\n      dup12\n        /* \"#utility.yul\":10471:10493   */\n      add\n        /* \"#utility.yul\":10429:10503   */\n      tag_79\n      jump\t// in\n    tag_192:\n        /* \"#utility.yul\":10419:10503   */\n      swap5\n      pop\n        /* \"#utility.yul\":10221:10513   */\n      pop\n        /* \"#utility.yul\":10573:10576   */\n      0x80\n        /* \"#utility.yul\":10562:10571   */\n      dup9\n        /* \"#utility.yul\":10558:10577   */\n      add\n        /* \"#utility.yul\":10552:10578   */\n      mload\n        /* \"#utility.yul\":10605:10623   */\n      0xffffffffffffffff\n        /* \"#utility.yul\":10597:10603   */\n      dup2\n        /* \"#utility.yul\":10594:10624   */\n      gt\n        /* \"#utility.yul\":10591:10708   */\n      iszero\n      tag_193\n      jumpi\n        /* \"#utility.yul\":10627:10706   */\n      tag_194\n      tag_51\n      jump\t// in\n    tag_194:\n        /* \"#utility.yul\":10591:10708   */\n    tag_193:\n        /* \"#utility.yul\":10732:10806   */\n      tag_195\n        /* \"#utility.yul\":10798:10805   */\n      dup11\n        /* \"#utility.yul\":10789:10795   */\n      dup3\n        /* \"#utility.yul\":10778:10787   */\n      dup12\n        /* \"#utility.yul\":10774:10796   */\n      add\n        /* \"#utility.yul\":10732:10806   */\n      tag_79\n      jump\t// in\n    tag_195:\n        /* \"#utility.yul\":10722:10806   */\n      swap4\n      pop\n        /* \"#utility.yul\":10523:10816   */\n      pop\n        /* \"#utility.yul\":10876:10879   */\n      0xa0\n        /* \"#utility.yul\":10865:10874   */\n      dup9\n        /* \"#utility.yul\":10861:10880   */\n      add\n        /* \"#utility.yul\":10855:10881   */\n      mload\n        /* \"#utility.yul\":10908:10926   */\n      0xffffffffffffffff\n        /* \"#utility.yul\":10900:10906   */\n      dup2\n        /* \"#utility.yul\":10897:10927   */\n      gt\n        /* \"#utility.yul\":10894:11011   */\n      iszero\n      tag_196\n      jumpi\n        /* \"#utility.yul\":10930:11009   */\n      tag_197\n      tag_51\n      jump\t// in\n    tag_197:\n        /* \"#utility.yul\":10894:11011   */\n    tag_196:\n        /* \"#utility.yul\":11035:11109   */\n      tag_198\n        /* \"#utility.yul\":11101:11108   */\n      dup11\n        /* \"#utility.yul\":11092:11098   */\n      dup3\n        /* \"#utility.yul\":11081:11090   */\n      dup12\n        /* \"#utility.yul\":11077:11099   */\n      add\n        /* \"#utility.yul\":11035:11109   */\n      tag_79\n      jump\t// in\n    tag_198:\n        /* \"#utility.yul\":11025:11109   */\n      swap3\n      pop\n        /* \"#utility.yul\":10826:11119   */\n      pop\n        /* \"#utility.yul\":11179:11182   */\n      0xc0\n        /* \"#utility.yul\":11168:11177   */\n      dup9\n        /* \"#utility.yul\":11164:11183   */\n      add\n        /* \"#utility.yul\":11158:11184   */\n      mload\n        /* \"#utility.yul\":11211:11229   */\n      0xffffffffffffffff\n        /* \"#utility.yul\":11203:11209   */\n      dup2\n        /* \"#utility.yul\":11200:11230   */\n      gt\n        /* \"#utility.yul\":11197:11314   */\n      iszero\n      tag_199\n      jumpi\n        /* \"#utility.yul\":11233:11312   */\n      tag_200\n      tag_51\n      jump\t// in\n    tag_200:\n        /* \"#utility.yul\":11197:11314   */\n    tag_199:\n        /* \"#utility.yul\":11338:11412   */\n      tag_201\n        /* \"#utility.yul\":11404:11411   */\n      dup11\n        /* \"#utility.yul\":11395:11401   */\n      dup3\n        /* \"#utility.yul\":11384:11393   */\n      dup12\n        /* \"#utility.yul\":11380:11402   */\n      add\n        /* \"#utility.yul\":11338:11412   */\n      tag_79\n      jump\t// in\n    tag_201:\n        /* \"#utility.yul\":11328:11412   */\n      swap2\n      pop\n        /* \"#utility.yul\":11129:11422   */\n      pop\n        /* \"#utility.yul\":8927:11429   */\n      swap3\n      swap6\n      swap9\n      swap2\n      swap5\n      swap8\n      pop\n      swap3\n      swap6\n      pop\n      jump\t// out\n        /* \"#utility.yul\":11435:11583   */\n    tag_80:\n        /* \"#utility.yul\":11537:11548   */\n      0x00\n        /* \"#utility.yul\":11574:11577   */\n      dup2\n        /* \"#utility.yul\":11559:11577   */\n      swap1\n      pop\n        /* \"#utility.yul\":11435:11583   */\n      swap3\n      swap2\n      pop\n      pop\n      jump\t// out\n        /* \"#utility.yul\":11589:11979   */\n    tag_81:\n        /* \"#utility.yul\":11695:11698   */\n      0x00\n        /* \"#utility.yul\":11723:11762   */\n      tag_204\n        /* \"#utility.yul\":11756:11761   */\n      dup3\n        /* \"#utility.yul\":11723:11762   */\n      tag_55\n      jump\t// in\n    tag_204:\n        /* \"#utility.yul\":11778:11867   */\n      tag_205\n        /* \"#utility.yul\":11860:11866   */\n      dup2\n        /* \"#utility.yul\":11855:11858   */\n      dup6\n        /* \"#utility.yul\":11778:11867   */\n      tag_80\n      jump\t// in\n    tag_205:\n        /* \"#utility.yul\":11771:11867   */\n      swap4\n      pop\n        /* \"#utility.yul\":11876:11941   */\n      tag_206\n        /* \"#utility.yul\":11934:11940   */\n      dup2\n        /* \"#utility.yul\":11929:11932   */\n      dup6\n        /* \"#utility.yul\":11922:11926   */\n      0x20\n        /* \"#utility.yul\":11915:11920   */\n      dup7\n        /* \"#utility.yul\":11911:11927   */\n      add\n        /* \"#utility.yul\":11876:11941   */\n      tag_57\n      jump\t// in\n    tag_206:\n        /* \"#utility.yul\":11966:11972   */\n      dup1\n        /* \"#utility.yul\":11961:11964   */\n      dup5\n        /* \"#utility.yul\":11957:11973   */\n      add\n        /* \"#utility.yul\":11950:11973   */\n      swap2\n      pop\n        /* \"#utility.yul\":11699:11979   */\n      pop\n        /* \"#utility.yul\":11589:11979   */\n      swap3\n      swap2\n      pop\n      pop\n      jump\t// out\n        /* \"#utility.yul\":11985:12260   */\n    tag_40:\n        /* \"#utility.yul\":12117:12120   */\n      0x00\n        /* \"#utility.yul\":12139:12234   */\n      tag_208\n        /* \"#utility.yul\":12230:12233   */\n      dup3\n        /* \"#utility.yul\":12221:12227   */\n      dup5\n        /* \"#utility.yul\":12139:12234   */\n      tag_81\n      jump\t// in\n    tag_208:\n        /* \"#utility.yul\":12132:12234   */\n      swap2\n      pop\n        /* \"#utility.yul\":12251:12254   */\n      dup2\n        /* \"#utility.yul\":12244:12254   */\n      swap1\n      pop\n        /* \"#utility.yul\":11985:12260   */\n      swap3\n      swap2\n      pop\n      pop\n      jump\t// out\n\n    auxdata: 0xa264697066735822122068365e981f711225479165b2d6ccdc5547d9a421f497939a4fbbd41d77820d9964736f6c634300081e0033\n}\n",
				"bytecode": {
					"linkReferences": {},
					"object": "608060405234801561000f575f5ffd5b50604051610b31380380610b31833981810160405281019061003191906100d4565b805f5f6101000a81548173ffffffffffffffffffffffffffffffffffffffff021916908373ffffffffffffffffffffffffffffffffffffffff160217905550506100ff565b5f5ffd5b5f73ffffffffffffffffffffffffffffffffffffffff82169050919050565b5f6100a38261007a565b9050919050565b6100b381610099565b81146100bd575f5ffd5b50565b5f815190506100ce816100aa565b92915050565b5f602082840312156100e9576100e8610076565b5b5f6100f6848285016100c0565b91505092915050565b610a258061010c5f395ff3fe608060405234801561000f575f5ffd5b506004361061004a575f3560e01c80631c1caee61461004e5780635065661e146100845780637b103999146100b4578063da8666e8146100d2575b5f5ffd5b61006860048036038101906100639190610423565b610102565b60405161007b97969594939291906104be565b60405180910390f35b61009e60048036038101906100999190610688565b6101c1565b6040516100ab91906106fc565b60405180910390f35b6100bc6102be565b6040516100c9919061078f565b60405180910390f35b6100ec60048036038101906100e79190610688565b6102e2565b6040516100f991906106fc565b60405180910390f35b60608060608060608060605f5f9054906101000a900473ffffffffffffffffffffffffffffffffffffffff1673ffffffffffffffffffffffffffffffffffffffff1663b9db15b4896040518263ffffffff1660e01b815260040161016691906107b7565b5f60405180830381865afa158015610180573d5f5f3e3d5ffd5b505050506040513d5f823e3d601f19601f820116820180604052508101906101a8919061083e565b9650965096509650965096509650919395979092949650565b5f5f5f5f9054906101000a900473ffffffffffffffffffffffffffffffffffffffff1673ffffffffffffffffffffffffffffffffffffffff1663b9db15b4856040518263ffffffff1660e01b815260040161021c91906107b7565b5f60405180830381865afa158015610236573d5f5f3e3d5ffd5b505050506040513d5f823e3d601f19601f8201168201806040525081019061025e919061083e565b96505050505050508260405160200161027791906109d9565b604051602081830303815290604052805190602001208160405160200161029e91906109d9565b604051602081830303815290604052805190602001201491505092915050565b5f5f9054906101000a900473ffffffffffffffffffffffffffffffffffffffff1681565b5f5f5f5f9054906101000a900473ffffffffffffffffffffffffffffffffffffffff1673ffffffffffffffffffffffffffffffffffffffff1663b9db15b4856040518263ffffffff1660e01b815260040161033d91906107b7565b5f60405180830381865afa158015610357573d5f5f3e3d5ffd5b505050506040513d5f823e3d601f19601f8201168201806040525081019061037f919061083e565b50509450505050508260405160200161039891906109d9565b60405160208183030381529060405280519060200120816040516020016103bf91906109d9565b604051602081830303815290604052805190602001201491505092915050565b5f604051905090565b5f5ffd5b5f5ffd5b5f819050919050565b610402816103f0565b811461040c575f5ffd5b50565b5f8135905061041d816103f9565b92915050565b5f60208284031215610438576104376103e8565b5b5f6104458482850161040f565b91505092915050565b5f81519050919050565b5f82825260208201905092915050565b8281835e5f83830152505050565b5f601f19601f8301169050919050565b5f6104908261044e565b61049a8185610458565b93506104aa818560208601610468565b6104b381610476565b840191505092915050565b5f60e0820190508181035f8301526104d6818a610486565b905081810360208301526104ea8189610486565b905081810360408301526104fe8188610486565b905081810360608301526105128187610486565b905081810360808301526105268186610486565b905081810360a083015261053a8185610486565b905081810360c083015261054e8184610486565b905098975050505050505050565b5f5ffd5b5f5ffd5b7f4e487b71000000000000000000000000000000000000000000000000000000005f52604160045260245ffd5b61059a82610476565b810181811067ffffffffffffffff821117156105b9576105b8610564565b5b80604052505050565b5f6105cb6103df565b90506105d78282610591565b919050565b5f67ffffffffffffffff8211156105f6576105f5610564565b5b6105ff82610476565b9050602081019050919050565b828183375f83830152505050565b5f61062c610627846105dc565b6105c2565b90508281526020810184848401111561064857610647610560565b5b61065384828561060c565b509392505050565b5f82601f83011261066f5761066e61055c565b5b813561067f84826020860161061a565b91505092915050565b5f5f6040838503121561069e5761069d6103e8565b5b5f6106ab8582860161040f565b925050602083013567ffffffffffffffff8111156106cc576106cb6103ec565b5b6106d88582860161065b565b9150509250929050565b5f8115159050919050565b6106f6816106e2565b82525050565b5f60208201905061070f5f8301846106ed565b92915050565b5f73ffffffffffffffffffffffffffffffffffffffff82169050919050565b5f819050919050565b5f61075761075261074d84610715565b610734565b610715565b9050919050565b5f6107688261073d565b9050919050565b5f6107798261075e565b9050919050565b6107898161076f565b82525050565b5f6020820190506107a25f830184610780565b92915050565b6107b1816103f0565b82525050565b5f6020820190506107ca5f8301846107a8565b92915050565b5f6107e26107dd846105dc565b6105c2565b9050828152602081018484840111156107fe576107fd610560565b5b610809848285610468565b509392505050565b5f82601f8301126108255761082461055c565b5b81516108358482602086016107d0565b91505092915050565b5f5f5f5f5f5f5f60e0888a031215610859576108586103e8565b5b5f88015167ffffffffffffffff811115610876576108756103ec565b5b6108828a828b01610811565b975050602088015167ffffffffffffffff8111156108a3576108a26103ec565b5b6108af8a828b01610811565b965050604088015167ffffffffffffffff8111156108d0576108cf6103ec565b5b6108dc8a828b01610811565b955050606088015167ffffffffffffffff8111156108fd576108fc6103ec565b5b6109098a828b01610811565b945050608088015167ffffffffffffffff81111561092a576109296103ec565b5b6109368a828b01610811565b93505060a088015167ffffffffffffffff811115610957576109566103ec565b5b6109638a828b01610811565b92505060c088015167ffffffffffffffff811115610984576109836103ec565b5b6109908a828b01610811565b91505092959891949750929550565b5f81905092915050565b5f6109b38261044e565b6109bd818561099f565b93506109cd818560208601610468565b80840191505092915050565b5f6109e482846109a9565b91508190509291505056fea264697066735822122068365e981f711225479165b2d6ccdc5547d9a421f497939a4fbbd41d77820d9964736f6c634300081e0033",
					"opcodes": "PUSH1 0x80 PUSH1 0x40 MSTORE CALLVALUE DUP1 ISZERO PUSH2 0xF JUMPI PUSH0 PUSH0 REVERT JUMPDEST POP PUSH1 0x40 MLOAD PUSH2 0xB31 CODESIZE SUB DUP1 PUSH2 0xB31 DUP4 CODECOPY DUP2 DUP2 ADD PUSH1 0x40 MSTORE DUP2 ADD SWAP1 PUSH2 0x31 SWAP2 SWAP1 PUSH2 0xD4 JUMP JUMPDEST DUP1 PUSH0 PUSH0 PUSH2 0x100 EXP DUP2 SLOAD DUP2 PUSH20 0xFFFFFFFFFFFFFFFFFFFFFFFFFFFFFFFFFFFFFFFF MUL NOT AND SWAP1 DUP4 PUSH20 0xFFFFFFFFFFFFFFFFFFFFFFFFFFFFFFFFFFFFFFFF AND MUL OR SWAP1 SSTORE POP POP PUSH2 0xFF JUMP JUMPDEST PUSH0 PUSH0 REVERT JUMPDEST PUSH0 PUSH20 0xFFFFFFFFFFFFFFFFFFFFFFFFFFFFFFFFFFFFFFFF DUP3 AND SWAP1 POP SWAP2 SWAP1 POP JUMP JUMPDEST PUSH0 PUSH2 0xA3 DUP3 PUSH2 0x7A JUMP JUMPDEST SWAP1 POP SWAP2 SWAP1 POP JUMP JUMPDEST PUSH2 0xB3 DUP2 PUSH2 0x99 JUMP JUMPDEST DUP2 EQ PUSH2 0xBD JUMPI PUSH0 PUSH0 REVERT JUMPDEST POP JUMP JUMPDEST PUSH0 DUP2 MLOAD SWAP1 POP PUSH2 0xCE DUP2 PUSH2 0xAA JUMP JUMPDEST SWAP3 SWAP2 POP POP JUMP JUMPDEST PUSH0 PUSH1 0x20 DUP3 DUP5 SUB SLT ISZERO PUSH2 0xE9 JUMPI PUSH2 0xE8 PUSH2 0x76 JUMP JUMPDEST JUMPDEST PUSH0 PUSH2 0xF6 DUP5 DUP3 DUP6 ADD PUSH2 0xC0 JUMP JUMPDEST SWAP2 POP POP SWAP3 SWAP2 POP POP JUMP JUMPDEST PUSH2 0xA25 DUP1 PUSH2 0x10C PUSH0 CODECOPY PUSH0 RETURN INVALID PUSH1 0x80 PUSH1 0x40 MSTORE CALLVALUE DUP1 ISZERO PUSH2 0xF JUMPI PUSH0 PUSH0 REVERT JUMPDEST POP PUSH1 0x4 CALLDATASIZE LT PUSH2 0x4A JUMPI PUSH0 CALLDATALOAD PUSH1 0xE0 SHR DUP1 PUSH4 0x1C1CAEE6 EQ PUSH2 0x4E JUMPI DUP1 PUSH4 0x5065661E EQ PUSH2 0x84 JUMPI DUP1 PUSH4 0x7B103999 EQ PUSH2 0xB4 JUMPI DUP1 PUSH4 0xDA8666E8 EQ PUSH2 0xD2 JUMPI JUMPDEST PUSH0 PUSH0 REVERT JUMPDEST PUSH2 0x68 PUSH1 0x4 DUP1 CALLDATASIZE SUB DUP2 ADD SWAP1 PUSH2 0x63 SWAP2 SWAP1 PUSH2 0x423 JUMP JUMPDEST PUSH2 0x102 JUMP JUMPDEST PUSH1 0x40 MLOAD PUSH2 0x7B SWAP8 SWAP7 SWAP6 SWAP5 SWAP4 SWAP3 SWAP2 SWAP1 PUSH2 0x4BE JUMP JUMPDEST PUSH1 0x40 MLOAD DUP1 SWAP2 SUB SWAP1 RETURN JUMPDEST PUSH2 0x9E PUSH1 0x4 DUP1 CALLDATASIZE SUB DUP2 ADD SWAP1 PUSH2 0x99 SWAP2 SWAP1 PUSH2 0x688 JUMP JUMPDEST PUSH2 0x1C1 JUMP JUMPDEST PUSH1 0x40 MLOAD PUSH2 0xAB SWAP2 SWAP1 PUSH2 0x6FC JUMP JUMPDEST PUSH1 0x40 MLOAD DUP1 SWAP2 SUB SWAP1 RETURN JUMPDEST PUSH2 0xBC PUSH2 0x2BE JUMP JUMPDEST PUSH1 0x40 MLOAD PUSH2 0xC9 SWAP2 SWAP1 PUSH2 0x78F JUMP JUMPDEST PUSH1 0x40 MLOAD DUP1 SWAP2 SUB SWAP1 RETURN JUMPDEST PUSH2 0xEC PUSH1 0x4 DUP1 CALLDATASIZE SUB DUP2 ADD SWAP1 PUSH2 0xE7 SWAP2 SWAP1 PUSH2 0x688 JUMP JUMPDEST PUSH2 0x2E2 JUMP JUMPDEST PUSH1 0x40 MLOAD PUSH2 0xF9 SWAP2 SWAP1 PUSH2 0x6FC JUMP JUMPDEST PUSH1 0x40 MLOAD DUP1 SWAP2 SUB SWAP1 RETURN JUMPDEST PUSH1 0x60 DUP1 PUSH1 0x60 DUP1 PUSH1 0x60 DUP1 PUSH1 0x60 PUSH0 PUSH0 SWAP1 SLOAD SWAP1 PUSH2 0x100 EXP SWAP1 DIV PUSH20 0xFFFFFFFFFFFFFFFFFFFFFFFFFFFFFFFFFFFFFFFF AND PUSH20 0xFFFFFFFFFFFFFFFFFFFFFFFFFFFFFFFFFFFFFFFF AND PUSH4 0xB9DB15B4 DUP10 PUSH1 0x40 MLOAD DUP3 PUSH4 0xFFFFFFFF AND PUSH1 0xE0 SHL DUP2 MSTORE PUSH1 0x4 ADD PUSH2 0x166 SWAP2 SWAP1 PUSH2 0x7B7 JUMP JUMPDEST PUSH0 PUSH1 0x40 MLOAD DUP1 DUP4 SUB DUP2 DUP7 GAS STATICCALL ISZERO DUP1 ISZERO PUSH2 0x180 JUMPI RETURNDATASIZE PUSH0 PUSH0 RETURNDATACOPY RETURNDATASIZE PUSH0 REVERT JUMPDEST POP POP POP POP PUSH1 0x40 MLOAD RETURNDATASIZE PUSH0 DUP3 RETURNDATACOPY RETURNDATASIZE PUSH1 0x1F NOT PUSH1 0x1F DUP3 ADD AND DUP3 ADD DUP1 PUSH1 0x40 MSTORE POP DUP2 ADD SWAP1 PUSH2 0x1A8 SWAP2 SWAP1 PUSH2 0x83E JUMP JUMPDEST SWAP7 POP SWAP7 POP SWAP7 POP SWAP7 POP SWAP7 POP SWAP7 POP SWAP7 POP SWAP2 SWAP4 SWAP6 SWAP8 SWAP1 SWAP3 SWAP5 SWAP7 POP JUMP JUMPDEST PUSH0 PUSH0 PUSH0 PUSH0 SWAP1 SLOAD SWAP1 PUSH2 0x100 EXP SWAP1 DIV PUSH20 0xFFFFFFFFFFFFFFFFFFFFFFFFFFFFFFFFFFFFFFFF AND PUSH20 0xFFFFFFFFFFFFFFFFFFFFFFFFFFFFFFFFFFFFFFFF AND PUSH4 0xB9DB15B4 DUP6 PUSH1 0x40 MLOAD DUP3 PUSH4 0xFFFFFFFF AND PUSH1 0xE0 SHL DUP2 MSTORE PUSH1 0x4 ADD PUSH2 0x21C SWAP2 SWAP1 PUSH2 0x7B7 JUMP JUMPDEST PUSH0 PUSH1 0x40 MLOAD DUP1 DUP4 SUB DUP2 DUP7 GAS STATICCALL ISZERO DUP1 ISZERO PUSH2 0x236 JUMPI RETURNDATASIZE PUSH0 PUSH0 RETURNDATACOPY RETURNDATASIZE PUSH0 REVERT JUMPDEST POP POP POP POP PUSH1 0x40 MLOAD RETURNDATASIZE PUSH0 DUP3 RETURNDATACOPY RETURNDATASIZE PUSH1 0x1F NOT PUSH1 0x1F DUP3 ADD AND DUP3 ADD DUP1 PUSH1 0x40 MSTORE POP DUP2 ADD SWAP1 PUSH2 0x25E SWAP2 SWAP1 PUSH2 0x83E JUMP JUMPDEST SWAP7 POP POP POP POP POP POP POP DUP3 PUSH1 0x40 MLOAD PUSH1 0x20 ADD PUSH2 0x277 SWAP2 SWAP1 PUSH2 0x9D9 JUMP JUMPDEST PUSH1 0x40 MLOAD PUSH1 0x20 DUP2 DUP4 SUB SUB DUP2 MSTORE SWAP1 PUSH1 0x40 MSTORE DUP1 MLOAD SWAP1 PUSH1 0x20 ADD KECCAK256 DUP2 PUSH1 0x40 MLOAD PUSH1 0x20 ADD PUSH2 0x29E SWAP2 SWAP1 PUSH2 0x9D9 JUMP JUMPDEST PUSH1 0x40 MLOAD PUSH1 0x20 DUP2 DUP4 SUB SUB DUP2 MSTORE SWAP1 PUSH1 0x40 MSTORE DUP1 MLOAD SWAP1 PUSH1 0x20 ADD KECCAK256 EQ SWAP2 POP POP SWAP3 SWAP2 POP POP JUMP JUMPDEST PUSH0 PUSH0 SWAP1 SLOAD SWAP1 PUSH2 0x100 EXP SWAP1 DIV PUSH20 0xFFFFFFFFFFFFFFFFFFFFFFFFFFFFFFFFFFFFFFFF AND DUP2 JUMP JUMPDEST PUSH0 PUSH0 PUSH0 PUSH0 SWAP1 SLOAD SWAP1 PUSH2 0x100 EXP SWAP1 DIV PUSH20 0xFFFFFFFFFFFFFFFFFFFFFFFFFFFFFFFFFFFFFFFF AND PUSH20 0xFFFFFFFFFFFFFFFFFFFFFFFFFFFFFFFFFFFFFFFF AND PUSH4 0xB9DB15B4 DUP6 PUSH1 0x40 MLOAD DUP3 PUSH4 0xFFFFFFFF AND PUSH1 0xE0 SHL DUP2 MSTORE PUSH1 0x4 ADD PUSH2 0x33D SWAP2 SWAP1 PUSH2 0x7B7 JUMP JUMPDEST PUSH0 PUSH1 0x40 MLOAD DUP1 DUP4 SUB DUP2 DUP7 GAS STATICCALL ISZERO DUP1 ISZERO PUSH2 0x357 JUMPI RETURNDATASIZE PUSH0 PUSH0 RETURNDATACOPY RETURNDATASIZE PUSH0 REVERT JUMPDEST POP POP POP POP PUSH1 0x40 MLOAD RETURNDATASIZE PUSH0 DUP3 RETURNDATACOPY RETURNDATASIZE PUSH1 0x1F NOT PUSH1 0x1F DUP3 ADD AND DUP3 ADD DUP1 PUSH1 0x40 MSTORE POP DUP2 ADD SWAP1 PUSH2 0x37F SWAP2 SWAP1 PUSH2 0x83E JUMP JUMPDEST POP POP SWAP5 POP POP POP POP POP DUP3 PUSH1 0x40 MLOAD PUSH1 0x20 ADD PUSH2 0x398 SWAP2 SWAP1 PUSH2 0x9D9 JUMP JUMPDEST PUSH1 0x40 MLOAD PUSH1 0x20 DUP2 DUP4 SUB SUB DUP2 MSTORE SWAP1 PUSH1 0x40 MSTORE DUP1 MLOAD SWAP1 PUSH1 0x20 ADD KECCAK256 DUP2 PUSH1 0x40 MLOAD PUSH1 0x20 ADD PUSH2 0x3BF SWAP2 SWAP1 PUSH2 0x9D9 JUMP JUMPDEST PUSH1 0x40 MLOAD PUSH1 0x20 DUP2 DUP4 SUB SUB DUP2 MSTORE SWAP1 PUSH1 0x40 MSTORE DUP1 MLOAD SWAP1 PUSH1 0x20 ADD KECCAK256 EQ SWAP2 POP POP SWAP3 SWAP2 POP POP JUMP JUMPDEST PUSH0 PUSH1 0x40 MLOAD SWAP1 POP SWAP1 JUMP JUMPDEST PUSH0 PUSH0 REVERT JUMPDEST PUSH0 PUSH0 REVERT JUMPDEST PUSH0 DUP2 SWAP1 POP SWAP2 SWAP1 POP JUMP JUMPDEST PUSH2 0x402 DUP2 PUSH2 0x3F0 JUMP JUMPDEST DUP2 EQ PUSH2 0x40C JUMPI PUSH0 PUSH0 REVERT JUMPDEST POP JUMP JUMPDEST PUSH0 DUP2 CALLDATALOAD SWAP1 POP PUSH2 0x41D DUP2 PUSH2 0x3F9 JUMP JUMPDEST SWAP3 SWAP2 POP POP JUMP JUMPDEST PUSH0 PUSH1 0x20 DUP3 DUP5 SUB SLT ISZERO PUSH2 0x438 JUMPI PUSH2 0x437 PUSH2 0x3E8 JUMP JUMPDEST JUMPDEST PUSH0 PUSH2 0x445 DUP5 DUP3 DUP6 ADD PUSH2 0x40F JUMP JUMPDEST SWAP2 POP POP SWAP3 SWAP2 POP POP JUMP JUMPDEST PUSH0 DUP2 MLOAD SWAP1 POP SWAP2 SWAP1 POP JUMP JUMPDEST PUSH0 DUP3 DUP3 MSTORE PUSH1 0x20 DUP3 ADD SWAP1 POP SWAP3 SWAP2 POP POP JUMP JUMPDEST DUP3 DUP2 DUP4 MCOPY PUSH0 DUP4 DUP4 ADD MSTORE POP POP POP JUMP JUMPDEST PUSH0 PUSH1 0x1F NOT PUSH1 0x1F DUP4 ADD AND SWAP1 POP SWAP2 SWAP1 POP JUMP JUMPDEST PUSH0 PUSH2 0x490 DUP3 PUSH2 0x44E JUMP JUMPDEST PUSH2 0x49A DUP2 DUP6 PUSH2 0x458 JUMP JUMPDEST SWAP4 POP PUSH2 0x4AA DUP2 DUP6 PUSH1 0x20 DUP7 ADD PUSH2 0x468 JUMP JUMPDEST PUSH2 0x4B3 DUP2 PUSH2 0x476 JUMP JUMPDEST DUP5 ADD SWAP2 POP POP SWAP3 SWAP2 POP POP JUMP JUMPDEST PUSH0 PUSH1 0xE0 DUP3 ADD SWAP1 POP DUP2 DUP2 SUB PUSH0 DUP4 ADD MSTORE PUSH2 0x4D6 DUP2 DUP11 PUSH2 0x486 JUMP JUMPDEST SWAP1 POP DUP2 DUP2 SUB PUSH1 0x20 DUP4 ADD MSTORE PUSH2 0x4EA DUP2 DUP10 PUSH2 0x486 JUMP JUMPDEST SWAP1 POP DUP2 DUP2 SUB PUSH1 0x40 DUP4 ADD MSTORE PUSH2 0x4FE DUP2 DUP9 PUSH2 0x486 JUMP JUMPDEST SWAP1 POP DUP2 DUP2 SUB PUSH1 0x60 DUP4 ADD MSTORE PUSH2 0x512 DUP2 DUP8 PUSH2 0x486 JUMP JUMPDEST SWAP1 POP DUP2 DUP2 SUB PUSH1 0x80 DUP4 ADD MSTORE PUSH2 0x526 DUP2 DUP7 PUSH2 0x486 JUMP JUMPDEST SWAP1 POP DUP2 DUP2 SUB PUSH1 0xA0 DUP4 ADD MSTORE PUSH2 0x53A DUP2 DUP6 PUSH2 0x486 JUMP JUMPDEST SWAP1 POP DUP2 DUP2 SUB PUSH1 0xC0 DUP4 ADD MSTORE PUSH2 0x54E DUP2 DUP5 PUSH2 0x486 JUMP JUMPDEST SWAP1 POP SWAP9 SWAP8 POP POP POP POP POP POP POP POP JUMP JUMPDEST PUSH0 PUSH0 REVERT JUMPDEST PUSH0 PUSH0 REVERT JUMPDEST PUSH32 0x4E487B7100000000000000000000000000000000000000000000000000000000 PUSH0 MSTORE PUSH1 0x41 PUSH1 0x4 MSTORE PUSH1 0x24 PUSH0 REVERT JUMPDEST PUSH2 0x59A DUP3 PUSH2 0x476 JUMP JUMPDEST DUP2 ADD DUP2 DUP2 LT PUSH8 0xFFFFFFFFFFFFFFFF DUP3 GT OR ISZERO PUSH2 0x5B9 JUMPI PUSH2 0x5B8 PUSH2 0x564 JUMP JUMPDEST JUMPDEST DUP1 PUSH1 0x40 MSTORE POP POP POP JUMP JUMPDEST PUSH0 PUSH2 0x5CB PUSH2 0x3DF JUMP JUMPDEST SWAP1 POP PUSH2 0x5D7 DUP3 DUP3 PUSH2 0x591 JUMP JUMPDEST SWAP2 SWAP1 POP JUMP JUMPDEST PUSH0 PUSH8 0xFFFFFFFFFFFFFFFF DUP3 GT ISZERO PUSH2 0x5F6 JUMPI PUSH2 0x5F5 PUSH2 0x564 JUMP JUMPDEST JUMPDEST PUSH2 0x5FF DUP3 PUSH2 0x476 JUMP JUMPDEST SWAP1 POP PUSH1 0x20 DUP2 ADD SWAP1 POP SWAP2 SWAP1 POP JUMP JUMPDEST DUP3 DUP2 DUP4 CALLDATACOPY PUSH0 DUP4 DUP4 ADD MSTORE POP POP POP JUMP JUMPDEST PUSH0 PUSH2 0x62C PUSH2 0x627 DUP5 PUSH2 0x5DC JUMP JUMPDEST PUSH2 0x5C2 JUMP JUMPDEST SWAP1 POP DUP3 DUP2 MSTORE PUSH1 0x20 DUP2 ADD DUP5 DUP5 DUP5 ADD GT ISZERO PUSH2 0x648 JUMPI PUSH2 0x647 PUSH2 0x560 JUMP JUMPDEST JUMPDEST PUSH2 0x653 DUP5 DUP3 DUP6 PUSH2 0x60C JUMP JUMPDEST POP SWAP4 SWAP3 POP POP POP JUMP JUMPDEST PUSH0 DUP3 PUSH1 0x1F DUP4 ADD SLT PUSH2 0x66F JUMPI PUSH2 0x66E PUSH2 0x55C JUMP JUMPDEST JUMPDEST DUP2 CALLDATALOAD PUSH2 0x67F DUP5 DUP3 PUSH1 0x20 DUP7 ADD PUSH2 0x61A JUMP JUMPDEST SWAP2 POP POP SWAP3 SWAP2 POP POP JUMP JUMPDEST PUSH0 PUSH0 PUSH1 0x40 DUP4 DUP6 SUB SLT ISZERO PUSH2 0x69E JUMPI PUSH2 0x69D PUSH2 0x3E8 JUMP JUMPDEST JUMPDEST PUSH0 PUSH2 0x6AB DUP6 DUP3 DUP7 ADD PUSH2 0x40F JUMP JUMPDEST SWAP3 POP POP PUSH1 0x20 DUP4 ADD CALLDATALOAD PUSH8 0xFFFFFFFFFFFFFFFF DUP2 GT ISZERO PUSH2 0x6CC JUMPI PUSH2 0x6CB PUSH2 0x3EC JUMP JUMPDEST JUMPDEST PUSH2 0x6D8 DUP6 DUP3 DUP7 ADD PUSH2 0x65B JUMP JUMPDEST SWAP2 POP POP SWAP3 POP SWAP3 SWAP1 POP JUMP JUMPDEST PUSH0 DUP2 ISZERO ISZERO SWAP1 POP SWAP2 SWAP1 POP JUMP JUMPDEST PUSH2 0x6F6 DUP2 PUSH2 0x6E2 JUMP JUMPDEST DUP3 MSTORE POP POP JUMP JUMPDEST PUSH0 PUSH1 0x20 DUP3 ADD SWAP1 POP PUSH2 0x70F PUSH0 DUP4 ADD DUP5 PUSH2 0x6ED JUMP JUMPDEST SWAP3 SWAP2 POP POP JUMP JUMPDEST PUSH0 PUSH20 0xFFFFFFFFFFFFFFFFFFFFFFFFFFFFFFFFFFFFFFFF DUP3 AND SWAP1 POP SWAP2 SWAP1 POP JUMP JUMPDEST PUSH0 DUP2 SWAP1 POP SWAP2 SWAP1 POP JUMP JUMPDEST PUSH0 PUSH2 0x757 PUSH2 0x752 PUSH2 0x74D DUP5 PUSH2 0x715 JUMP JUMPDEST PUSH2 0x734 JUMP JUMPDEST PUSH2 0x715 JUMP JUMPDEST SWAP1 POP SWAP2 SWAP1 POP JUMP JUMPDEST PUSH0 PUSH2 0x768 DUP3 PUSH2 0x73D JUMP JUMPDEST SWAP1 POP SWAP2 SWAP1 POP JUMP JUMPDEST PUSH0 PUSH2 0x779 DUP3 PUSH2 0x75E JUMP JUMPDEST SWAP1 POP SWAP2 SWAP1 POP JUMP JUMPDEST PUSH2 0x789 DUP2 PUSH2 0x76F JUMP JUMPDEST DUP3 MSTORE POP POP JUMP JUMPDEST PUSH0 PUSH1 0x20 DUP3 ADD SWAP1 POP PUSH2 0x7A2 PUSH0 DUP4 ADD DUP5 PUSH2 0x780 JUMP JUMPDEST SWAP3 SWAP2 POP POP JUMP JUMPDEST PUSH2 0x7B1 DUP2 PUSH2 0x3F0 JUMP JUMPDEST DUP3 MSTORE POP POP JUMP JUMPDEST PUSH0 PUSH1 0x20 DUP3 ADD SWAP1 POP PUSH2 0x7CA PUSH0 DUP4 ADD DUP5 PUSH2 0x7A8 JUMP JUMPDEST SWAP3 SWAP2 POP POP JUMP JUMPDEST PUSH0 PUSH2 0x7E2 PUSH2 0x7DD DUP5 PUSH2 0x5DC JUMP JUMPDEST PUSH2 0x5C2 JUMP JUMPDEST SWAP1 POP DUP3 DUP2 MSTORE PUSH1 0x20 DUP2 ADD DUP5 DUP5 DUP5 ADD GT ISZERO PUSH2 0x7FE JUMPI PUSH2 0x7FD PUSH2 0x560 JUMP JUMPDEST JUMPDEST PUSH2 0x809 DUP5 DUP3 DUP6 PUSH2 0x468 JUMP JUMPDEST POP SWAP4 SWAP3 POP POP POP JUMP JUMPDEST PUSH0 DUP3 PUSH1 0x1F DUP4 ADD SLT PUSH2 0x825 JUMPI PUSH2 0x824 PUSH2 0x55C JUMP JUMPDEST JUMPDEST DUP2 MLOAD PUSH2 0x835 DUP5 DUP3 PUSH1 0x20 DUP7 ADD PUSH2 0x7D0 JUMP JUMPDEST SWAP2 POP POP SWAP3 SWAP2 POP POP JUMP JUMPDEST PUSH0 PUSH0 PUSH0 PUSH0 PUSH0 PUSH0 PUSH0 PUSH1 0xE0 DUP9 DUP11 SUB SLT ISZERO PUSH2 0x859 JUMPI PUSH2 0x858 PUSH2 0x3E8 JUMP JUMPDEST JUMPDEST PUSH0 DUP9 ADD MLOAD PUSH8 0xFFFFFFFFFFFFFFFF DUP2 GT ISZERO PUSH2 0x876 JUMPI PUSH2 0x875 PUSH2 0x3EC JUMP JUMPDEST JUMPDEST PUSH2 0x882 DUP11 DUP3 DUP12 ADD PUSH2 0x811 JUMP JUMPDEST SWAP8 POP POP PUSH1 0x20 DUP9 ADD MLOAD PUSH8 0xFFFFFFFFFFFFFFFF DUP2 GT ISZERO PUSH2 0x8A3 JUMPI PUSH2 0x8A2 PUSH2 0x3EC JUMP JUMPDEST JUMPDEST PUSH2 0x8AF DUP11 DUP3 DUP12 ADD PUSH2 0x811 JUMP JUMPDEST SWAP7 POP POP PUSH1 0x40 DUP9 ADD MLOAD PUSH8 0xFFFFFFFFFFFFFFFF DUP2 GT ISZERO PUSH2 0x8D0 JUMPI PUSH2 0x8CF PUSH2 0x3EC JUMP JUMPDEST JUMPDEST PUSH2 0x8DC DUP11 DUP3 DUP12 ADD PUSH2 0x811 JUMP JUMPDEST SWAP6 POP POP PUSH1 0x60 DUP9 ADD MLOAD PUSH8 0xFFFFFFFFFFFFFFFF DUP2 GT ISZERO PUSH2 0x8FD JUMPI PUSH2 0x8FC PUSH2 0x3EC JUMP JUMPDEST JUMPDEST PUSH2 0x909 DUP11 DUP3 DUP12 ADD PUSH2 0x811 JUMP JUMPDEST SWAP5 POP POP PUSH1 0x80 DUP9 ADD MLOAD PUSH8 0xFFFFFFFFFFFFFFFF DUP2 GT ISZERO PUSH2 0x92A JUMPI PUSH2 0x929 PUSH2 0x3EC JUMP JUMPDEST JUMPDEST PUSH2 0x936 DUP11 DUP3 DUP12 ADD PUSH2 0x811 JUMP JUMPDEST SWAP4 POP POP PUSH1 0xA0 DUP9 ADD MLOAD PUSH8 0xFFFFFFFFFFFFFFFF DUP2 GT ISZERO PUSH2 0x957 JUMPI PUSH2 0x956 PUSH2 0x3EC JUMP JUMPDEST JUMPDEST PUSH2 0x963 DUP11 DUP3 DUP12 ADD PUSH2 0x811 JUMP JUMPDEST SWAP3 POP POP PUSH1 0xC0 DUP9 ADD MLOAD PUSH8 0xFFFFFFFFFFFFFFFF DUP2 GT ISZERO PUSH2 0x984 JUMPI PUSH2 0x983 PUSH2 0x3EC JUMP JUMPDEST JUMPDEST PUSH2 0x990 DUP11 DUP3 DUP12 ADD PUSH2 0x811 JUMP JUMPDEST SWAP2 POP POP SWAP3 SWAP6 SWAP9 SWAP2 SWAP5 SWAP8 POP SWAP3 SWAP6 POP JUMP JUMPDEST PUSH0 DUP2 SWAP1 POP SWAP3 SWAP2 POP POP JUMP JUMPDEST PUSH0 PUSH2 0x9B3 DUP3 PUSH2 0x44E JUMP JUMPDEST PUSH2 0x9BD DUP2 DUP6 PUSH2 0x99F JUMP JUMPDEST SWAP4 POP PUSH2 0x9CD DUP2 DUP6 PUSH1 0x20 DUP7 ADD PUSH2 0x468 JUMP JUMPDEST DUP1 DUP5 ADD SWAP2 POP POP SWAP3 SWAP2 POP POP JUMP JUMPDEST PUSH0 PUSH2 0x9E4 DUP3 DUP5 PUSH2 0x9A9 JUMP JUMPDEST SWAP2 POP DUP2 SWAP1 POP SWAP3 SWAP2 POP POP JUMP INVALID LOG2 PUSH5 0x6970667358 0x22 SLT KECCAK256 PUSH9 0x365E981F7112254791 PUSH6 0xB2D6CCDC5547 0xD9 LOG4 0x21 DELEGATECALL SWAP8 SWAP4 SWAP11 0x4F 0xBB 0xD4 SAR PUSH24 0x820D9964736F6C634300081E003300000000000000000000 "
				},
				"gasEstimates": {
					"creation": {
						"codeDepositCost": "519400",
						"executionCost": "infinite",
						"totalCost": "infinite"
					},
					"external": {
						"registry()": "infinite",
						"verifyManual(uint256,string)": "infinite",
						"verifySpecifications(uint256,string)": "infinite",
						"viewProductDetails(uint256)": "infinite"
					}
				},
				"methodIdentifiers": {
					"registry()": "7b103999",
					"verifyManual(uint256,string)": "da8666e8",
					"verifySpecifications(uint256,string)": "5065661e",
					"viewProductDetails(uint256)": "1c1caee6"
				}
			},
			"storageLayout": {
				"storage": [
					{
						"astId": 343,
						"contract": "ProdArch.sol:AccessAndVerification",
						"label": "registry",
						"offset": 0,
						"slot": "0",
						"type": "t_contract(ProductRegistry)340"
					}
				],
				"types": {
					"t_contract(ProductRegistry)340": {
						"encoding": "inplace",
						"label": "contract ProductRegistry",
						"numberOfBytes": "20"
					}
				}
			},
			"userdoc": {
				"kind": "user",
				"methods": {},
				"version": 1
			}
		}
	}
}